:1000000000000120152400003D2400003D080000F0
:1000100041240000432400004524000000000000AB
:100020000000000000000000000000004724000065
:1000300049240000000000004B2400004D24000073
:100040004F2400004F240000CD1A0000251D0000A1
:10005000B11C00004F24000079030000051B0000C4
:100060004F2400004F2400004F2400004F240000C4
:100070004F2400004F2400004F2400004F240000B4
:100080004F2400006D0400004F2400004F240000A6
:1000900009050000550300004F2400004F24000014
:1000A0004F2400004F2400004F2400004F24000084
:1000B0004F2400004F24000000000000000000005A
:1000C0004F2400004F2400004F2400004F24000064
:1000D0004F2400004F2400004F24000000000000C7
:1000E0000000000000000000000000000000000010
:1000F0000000000000000000000000000000000000
:1001000000000000000000000000000000000000EF
:1001100000000000000000000000000000000000DF
:1001200000000000000000000000000000000000CF
:1001300000000000000000000000000000000000BF
:1001400000000000000000000000000000000000AF
:10015000000000000000000000000000000000009F
:10016000000000000000000000000000000000008F
:10017000000000000000000000000000000000007F
:10018000000000000000000000000000000000006F
:10019000000000000000000000000000000000005F
:1001A000000000000000000000000000000000004F
:1001B000000000000000000000000000000000003F
:1001C000000000000000000000000000000000002F
:1001D000000000000000000000000000000000001F
:1001E000000000000000000000000000000000000F
:1001F00000000000000000000000000000000000FF
:1002000010B5054C237833B9044B13B10448AFF350
:1002100000800123237010BDF809002000000000B9
:100220007C55000008B5034B1BB103490348AFF3ED
:10023000008008BD00000000FC0900207C55000083
:10024000154B002B08BF134B9D46A3F5803A0021A8
:100250008B460F461348144A121A02F0EBF90F4B63
:10026000002B00D098470E4B002B00D09847002061
:10027000002104000D000D48002802D00C4802F0B7
:10028000FFFC02F0F5F82000290000F091F802F0E0
:10029000DFF800BF0000080000000120000000009F
:1002A00000000000F80900200C140020812C000040
:1002B000092F00000A4B1B6810B5D3F8142521B193
:1002C00081401143C3F8141510BD0124844000F58A
:1002D000E07022EA0402C3F8142543F82010F3E783
:1002E00000000020054B1A68012303FA00F0D2F841
:1002F00004350343C2F80435704700BF00000020F6
:10030000054B1A68012303FA00F0D2F8043523EAFA
:100310000003C2F8043570470000002038B5054DD1
:10032000044645F001054FF47A40A847013CFAD154
:1003300038BD00BF00440000044B0122C3F8042371
:10034000034B4FF400121A60704700BF0050014089
:1003500000E100E008B5064B06480022C3F8002182
:1003600002F000FA42F21070BDE80840FFF7D6BF75
:1003700000500140F043000008B50B4B0B48002231
:10038000C3F8002102F0EEF91920FFF7B9FF41F29E
:100390008830FFF7C3FF1920FFF7A4FF4FF47A70EE
:1003A000BDE80840FFF7BABF00600040E843000026
:1003B00038B54FF40041002000F04CFF18B1194A45
:1003C0002D2100F03DF800F067FE1748174C02F0B1
:1003D000C9F9174B174AC3F810250125C3F8045370
:1003E0004023236000211C20FFF764FF29461920C9
:1003F000FFF760FF1920FFF775FFFFF79DFF002350
:1004000084F80633E02384F815330B4D0B4C284653
:1004100002F0A8F942F21070FFF780FF0123236079
:10042000F5E700BF064400000D44000000E100E0D5
:1004300000600040011C02001E440000005001400A
:1004400000B583B002900091019244F20100714620
:100450006A4601F085FF03B000BD0000024B4FF477
:100460003C6043F00103184730440000F8B51F4BCF
:100470001F491B680025C1F84051C1F84451C1F81B
:100480004851C1F84C51C1F80051C1F804514BB367
:10049000D1F8044517490968641A24F07F442F46AF
:1004A0001A68A24209D8A41A15441A7CDE691AB146
:1004B0001F74D3E905209047AEB90F4B0F4A197846
:1004C00013788B4205D10133DBB2022B08BF002326
:1004D000137012780A4B43F822500A4B4FF48012E3
:1004E000C3F80021F8BD3346DAE700BF340B002023
:1004F00000100140300B00202C0B00202D0B0020A1
:10050000240B002000E100E02DE9F74F9C4A9D49B3
:10051000137809789C4D99423CD00133DBB2022B11
:1005200008BF0023137099491278994B0F6853F84C
:1005300022003B1823F07F4300220B602B681646F5
:100540001446944613B942B12B6006E01968814203
:100550000ED902B12B60091A19604FF001082B68FF
:10056000DFF834A200930027BEB9DFF834B260E0B0
:10057000401A0C44D968C3F800C0D3F81CE031B16C
:100580003A1922F07F42C3E90121DE611E460122B1
:100590007346D7E70026B046E1E73446F6697B4A62
:1005A00063681268DFF8FCC1A068991A21F07F41E6
:1005B000614500F2A58001442160012222742A686D
:1005C0000023C4E90133E361002A40F0A2802C60DB
:1005D000CAE75A1C9BF80210D2B291428BF8002055
:1005E00004BF00228BF80020182202FB03B32A6804
:1005F00019799C68022974D003297ED0012918D169
:10060000217CB1B9DA6862601A69A2605A699B6993
:10061000A361604BE2601B78002BC0D06160BEE735
:100620009C4200F090809946DB69002BF8D10023B2
:1006300023749BF800309BF801209A42C9D12B68A3
:100640002FB9009A934202D1B8F1000F43D0002B8A
:1006500041D0D3F800A0504D4C4BD5F804751C6820
:10066000DFF844813E1B98F8003026F07F460336C1
:100670009BB94FF48033C5F84433C5F80433474B76
:100680004FF400324FF00109C3F880211A60C5F819
:100690000090FFF7E3FE88F80090B2452CBF544469
:1006A000A41924F07F44C5F84045D5F80435DB1B78
:1006B00023F07F43E41B033324F07F44A3420AD991
:1006C000D5F80435C5F84035FFF7C8FE334B4FF475
:1006D0000032C3F800212F4B00221A7003B0BDE88E
:1006E000F08F13469146A0E71174D2690123002AC6
:1006F000FAD1002B9DD02A609BE700231946F6E72C
:10070000D31A23F07F43834234BFC31A00232360EC
:1007100053E721681368994213D8591A1160E261AE
:1007200055E7091AD8691A4638B10346186888424D
:10073000F7D3401A1860184613462160E061DC6167
:1007400012E71346F2E74C450DD1D3692B6053B93C
:100750000E4801920121CAF8081003600D4B197070
:10076000FFF77CFE019AE1692368C9F81C1011B1FA
:10077000086803440B602B689A4218BF012756E7AC
:100780002C0B00202D0B0020340B0020300B002000
:10079000240B0020200B00200010014000E100E0AD
:1007A000140A0020FEFF7F00210B002072B6024ACF
:1007B0001368013313607047380B0020034A136835
:1007C000013B136003B962B6704700BF380B0020CD
:1007D000EFF30583C3F308032BB9EFF31480C04391
:1007E00000F00100704701207047000008B5FFF7D6
:1007F000EFFF012803D00449432000F0D1F8BDE801
:100800000840FFF7D3BF00BF3644000008B5FFF72C
:10081000DFFF012803D00449512000F0C1F8BDE8F2
:100820000840FFF7CBBF00BF36440000024B1B68F7
:100830000021986801F09EBF140000201EF0040FF4
:100840001CBFEFF309800AE0EFF308800549064A70
:10085000884201D8904202D88D464FF00000034BE9
:10086000184700000000012000E00020950800006B
:10087000BFF34F8F0549064BCA6802F4E062134389
:10088000CB60BFF34F8F00BFFDE700BF00ED00E07E
:100890000400FA052DE9F347044600F01BFF00F0C1
:1008A00041FD0028FBD1334D334E2888A2693349DE
:1008B000B76A000440F0010000F0ACFE2888E3684D
:1008C00001930004A36800932D49D4E9002340F06C
:1008D000010000F0BFFE2888E36900930004D4E91A
:1008E000042340F00100274900F0A8FEF36A9807AE
:1008F00006D528882449000440F0010000F086FE57
:10090000DFF89490DFF894A000264FF0010808FA71
:1009100006F33B4209D059F8262032B1288800045A
:10092000514640F0010000F075FE01361A2EEED15E
:10093000390608D52888104B14495A6B000440F03A
:10094000010000F067FE3A0408D528880A4B1049D8
:100950009A6B000440F0010000F05CFE0D4B1B6838
:10096000DB0700D500BE2046FFF782FF02B0BDE8DE
:10097000F08700BFF009002000ED00E08A4400008D
:100980009F440000D4440000FC4400004B4500009C
:100990006B450000F0ED00E0884500004045000098
:1009A00007B5ADF8000001916A46002144F202004B
:1009B00001F0D6FC03B05DF804FB50E8002F0B46B5
:1009C00040E8003C9CF0000FF7D11046704750E81B
:1009D000003F43EA010240E8002C9CF0000FF6D1F2
:1009E0001046704750E8002F02EA010340E8003C3F
:1009F0009CF0000FF6D11046704750E8003F03EB23
:100A0000010240E8002C9CF0000FF6D11046704720
:100A100050E8003FA3EB010240E8002C9CF0000FDF
:100A2000F6D1104670470121FFF7D1BF0021FFF733
:100A3000D9BF000010B50446002834D003681BB9A4
:100A40001A49FF20FFF7ACFF636823B917494FF439
:100A50008070FFF7A5FFA36823B9144940F2011085
:100A6000FFF79EFFE36823B910494FF48170FFF749
:100A700097FFA38A23B90D4940F20310FFF790FFB7
:100A8000D4E9012321689B1ADBB20A60013BDBB287
:100A9000FF2B226802D10020107110BD1168481C84
:100AA00010600B70F2E70E20F7E700BFB04A0000BD
:100AB00038B5044620B911494FF49270FFF770FF22
:100AC0000020FFF793FE226863681168994213D9EA
:100AD000481E106011F8015CE368A18A01FB05352E
:100AE000A36811791B1ADBB2994200D2137100205E
:100AF000FFF78CFE284638BD0025F8E7B04A000015
:100B000038B50C46054620B90E4940F24710FFF7AC
:100B100047FF24B90B494FF4A470FFF741FF0020B1
:100B2000FFF764FE2A681368591C1160EA68A41A6A
:100B3000AA8AB4FBF2F41C700020BDE83840FFF72D
:100B400065BE00BFB04A000010B5044618B906499A
:100B50003120FFF725FFA2682AB163692168206967
:100B600098470023A36010BDFF4A00000EB433B5C0
:100B7000059D044618B912494220FFF711FF636929
:100B80001BB90F494320FFF70BFF23681BB90C4922
:100B90004420FFF705FF63681BB909494520FFF7AB
:100BA000FFFE3DB102AA06AB42F8043D29462046AD
:100BB00000F06EF802B0BDE8304003B0704700BFEF
:100BC000FF4A0000826830B40468551C8560A15457
:100BD000D0E901329A4202D330BCFFF7B5BF30BC36
:100BE000704700002DE9F84F9946DDE90A431746A2
:100BF000824688460A460126BA420FD24E4538BF81
:100C00004E4613F0010B01D164B900240125B9F15E
:100C1000010F1AD909F1FF397D43F8E7B2FBF7F26A
:100C20000136E9E79B070ED5B9F1000F0CBF30255F
:100C30002025A642EAD2013C29465046FFF7C2FFD2
:100C4000002CF6D1E1E72025F3E7B8FBF5F39F424E
:100C5000E2D9DFF83890B8FBF5F3504619F80310E5
:100C600005FB1388FFF7AEFFB5FBF7F5002DF2D1BA
:100C7000BBF1000F02D00CB1A64201D3BDE8F88F42
:100C800020215046013CFFF79DFFF4E7444B000054
:100C90002DE9F74F0E469046054620B9AC494FF472
:100CA0009F70FFF77DFE6B6923B9A9494FF4A070CF
:100CB000FFF776FE2B6823B9A54940F24110FFF7F4
:100CC0006FFE6B6823B9A2494FF4A170FFF768FE6D
:100CD000002E00F0398116F8011B002958D0252973
:100CE00040F0D180002702E047F001071646324667
:100CF00012F8013B2D2BF7D0302B04D02B2B05D134
:100D000047F00407F2E747F00207EFE700242A2B39
:100D100006F101021BD1D8F80030191D1B68C8F874
:100D200000101C44164633782E2B1CD101364FF090
:100D3000000A314611F8012BA2F13000092814D81D
:100D40000A2303FB0A23A3F1300A0E46F1E712F847
:100D5000013CA3F130010929E5D80A2101FB043443
:100D6000303C1646D3E74FF0000A324612F8011B1A
:100D700001F0FB0068281646F8D0692916D054D82F
:100D8000582970D00ED825297DD03378002BA2D1D8
:100D90002B7B002B00F0D880284603B0BDE8F04F35
:100DA000FFF7D2BE632968D06429EED1D8F80020BD
:100DB000D2F80090111D89EAE972C8F80010A2EB80
:100DC000E9724FF0010B092A61DCD34538BFD346E5
:100DD0002CB1B9F1000F01DB790700D5013CBA074E
:100DE00002D5BAF1000F04D0FB0702D4002C54D175
:100DF0000024B9F1000F58DAC9F100092D21284665
:100E0000FFF7E0FE07F00302022A05D1BAF1000F56
:100E100002D1002C4DD10024CDE9004753460A22CF
:100E200049462846FFF7DEFEAFE7732954D016D8AF
:100E30007029AAD1D8F800301A1DC8F80020302136
:100E400028461C68FFF7BEFE78212846FFF7BAFE49
:100E500000220823CDE9003221461022E1E775295E
:100E60002FD0782991D1D8F800100A1DC8F8002099
:100E7000CDE90047534610222CE0D8F800301A1D67
:100E80001978C8F800202846FFF79CFE7DE70A2362
:100E90000BF1010B92FBF3F295E7A345A9D22021B8
:100EA0002846013CFFF78EFEA0E77807AAD52B2144
:100EB000A5E7A345B0D230212846013CFFF782FECA
:100EC000A7E7D8F80010CDE900470A1DC8F80020B0
:100ED00053460A220968A4E7D8F800301A1DC8F85A
:100EE0000020F907D3F8009012D54F46A7EB090B65
:100EF00017F8011B41B95C457FF647AF2021284612
:100F0000013CFFF75FFEF6E72846FFF75BFEEDE7E3
:100F1000B9F1000F16D0484601F052FD0746BC4219
:100F20000AD809F1FF3919F8011F00293FF42DAF44
:100F30002846FFF747FEF6E720212846013CFFF749
:100F400041FEECE74F46EAE703B0BDE8F08F00BF93
:100F5000544B00007047000007B5044B0093044A4F
:100F6000402300F032F803B05DF804FB750F000079
:100F70003D0B00202DE9F84389461446B2B10F4BD2
:100F80000F4E0325002743F00108224609EB070115
:100F9000002000F0F7FF0744241A48B933782BB13A
:100FA0004FF47A40C047013D02D13570BDE8F88367
:100FB00001233370002CE8D1F8E700BFA04B0000FC
:100FC0003C0B0020704701F02BB8F0B595B01C46E3
:100FD000164608460D4600F030FD1A9B0D93CDE9EC
:100FE000086400242346082205A928460A948DF89F
:100FF0002C400C9400F03BFD079B0293BDF8183089
:10100000ADF80C30BDF81A30ADF80E309DF8143044
:101010008DF8114003F00302012A1DD1BDF81440E0
:10102000059EC3F3C203C4F383148DF81030A200ED
:1010300008230EA9284600F01AFDC6F3952608AB32
:101040000093224602AB0EA9304600F0B1FB2846C1
:1010500000F0F7FC15B0F0BD022AF8D1BDF816403B
:10106000C3F3C203A4098DF810300827082C2646C4
:1010700028BF08263B4632460EA9284600F0F7FC5A
:10108000A41B08AB02AA31460EA8374400F0F4FBBB
:10109000002CEBD1DBE7000008B5FFF794FF04213B
:1010A000064800F0F5FA002803DA05494120FFF769
:1010B00077FC024B01225A7208BD00BF04000020D9
:1010C000B44B000008B5037813F0030F03F00402DB
:1010D00002D012B9104608BDDAB103F00303012BA8
:1010E00007D0022B0ED00E494FF4A470FFF758FC26
:1010F00006E00A6800880232C0F3831002440A60E6
:101100000120E8E70B684288023303EB92130B607F
:10111000F6E70B684288013303EB92130288F4E789
:101120001F4C00002DE9F04F484C87B00D46064695
:10113000871C00200092FFF759FB23682B60D4E93D
:1011400001231344226801339B1A04F21C4804F55E
:10115000836B04F21449BB4219D3009A0023002A7E
:101160006CD0012262F3010343F0040366F3891398
:101170002168A2680A4003320F44002044F822305C
:101180002760FFF743FB012007B0BDE8F08F012186
:101190004046FFF732FC5846FFF745FC0DF1180AB0
:1011A0004846FFF740FC60684AF8100DA5682840E3
:1011B000033004EB80005146FFF784FF024602989B
:1011C000002AF4D105EA000304EB8303811CDB68E9
:1011D00003930130054004EB850503F00303012B65
:1011E0000291ED6823D0022B08D0194901924FF4E7
:1011F000C270FFF7D5FB019A154607E0BDF80E3027
:101200009B0903332D0C01EB930302934846FFF730
:101210000DFC08B1029B636029464046FFF7EDFBD9
:10122000D4E901231344226801339B1A93E7BDF8E4
:101230000C30C3F383132D0C0B44E6E7022262F358
:10124000010343F0040366F39F5391E7500C002021
:101250001F4C000008B50F4B0F48FF229A60002278
:10126000C3F81824C3E90022C3F81424012283F828
:10127000202400F09BFB38B9084A094B09499B1A06
:10128000DB0802469A4200D108BD21F82220013233
:10129000F8E700BF500C0020D0550000805500003A
:1012A000D0550000D009002030B50B4C79B10B4A65
:1012B0000B49121BD20800239A4201D1002030BDF5
:1012C00001EB83056D88854202D00133F4E70346C4
:1012D00054F83300F3E700BF80550000D0550000FC
:1012E000D0090020094B013903EBC000032909D8BC
:1012F000DFE801F00A020406042070470079704715
:1013000040797047002070470220704780550000E8
:10131000034BD3E90030C31A58425841704700BF0D
:10132000500C00202DE9F04385B0FFF7F1FF074690
:10133000002840F0F2807A4DC5F81804BFF34F8FB3
:101340006868AC680DF1100848F8100D20400330B3
:1013500005EB80004146FFF7B5FE009B06460028DE
:101360005FD104EA0302991C013305EB820223409A
:1013700005EB8303D268DB68029302F00303022BC0
:101380000192009162D1BDF8063066484FEA931889
:10139000B8F1500FC14628BF4FF0500969F38F13C1
:1013A00009F10801ADF8063000F018FB07460028E7
:1013B00000F0A18000F041FB334601A90822384625
:1013C00000F04EFB009924EA01060136B600B14553
:1013D00035D95FFA89F97EB3F6B2A9EB0609214047
:1013E00003315FFA89F4B1464F4E05EB81010823C2
:1013F0004A46384600F034FB36B109F1080322466C
:101400003146384600F02CFB009B08F1030803EB43
:1014100098030093D5F81834002B4AD1D5F810441E
:1014200058E02A689A4204D86A60384605B0BDE898
:10143000F08304EA03008AE73B493446D7E72140BA
:10144000033108234A4605EB8101DAE7012B52D12B
:10145000BDF804303348C3F38311062928BF0621A1
:1014600061F3891302318900ADF8043000F0B6FA57
:10147000074600283FD000F0E0FA3346082201A9D1
:10148000384600F0EDFABDF80420C2F38312B31C15
:1014900096424FEA8303BDD200994A1C2140033192
:1014A000009205EB81010422384600F0D9FA01369A
:1014B000E9E7384600F0C5FAFFF72AFF80F001009F
:1014C000C7B2B2E7637A23B1236839461B68204666
:1014D00098476468002CF5D1384600F0B2FA2046EF
:1014E000FFF784F9D5F818340BB9009B6B60002026
:1014F000FFF78CF9E0E7D5F8104444B90B4B0C49E1
:101500001888000440F0020000F080F8D4E7236857
:1015100020469B6898476468EFE7002785E700BF8F
:10152000500C0020D05500005C0C0020E809002081
:10153000824C00002DE9F74F2F4C80460F46914614
:1015400001A9012218469B46D4F808A0FFF7EAFD3E
:1015500000283DD0019D0026A91C5E4506EB010236
:1015600040D100212548FFF728FA80F3100B244BC7
:10157000244A4FEA18499B1AB9EBD30F04D32249E6
:1015800040F2A910FFF70CFA6B1C03EA0A0304EB04
:10159000830349EA0B42DA6005EA0A0303330121B7
:1015A00014F8232068F3C50204F8232034F823201C
:1015B00066F3891224F8232054F8232067F39F222E
:1015C00044F8232061F301026FF3820204F8232020
:1015D00094F820341BB1FFF7A5FE0028FBD103B01F
:1015E000BDE8F08F0AEA020204EB820259F82630C5
:1015F000D3600136B1E700BF500C00206C10002012
:10160000D0550000805500001F4C000000231A46F2
:10161000FFF790BF13B502AC012344F8042D224616
:10162000FFF788FF02B010BD07B5CDE90023022304
:101630006A46FFF77FFF03B05DF804FB1FB5CDE9F5
:101640000123069B039301AA0323FFF773FF05B051
:101650005DF804FB1FB5CDE90023069B0293079BB1
:1016600003936A460423FFF765FF05B05DF804FBAA
:101670007FB5CDE90123089B0393099B04930A9B43
:10168000059301AA0523FFF755FF07B05DF804FB9A
:101690000F4A30B5D2F810440023214641B90372F5
:1016A000D2F810444CB9C2F810044160184630BD5D
:1016B0000D7A9D4205D04968F0E76268426060603B
:1016C000F4E701330A2BE8D14FF0FF33EEE700BF18
:1016D000500C0020084A38B50123D2F8104482F893
:1016E00020341D4604B938BD2368657220465B6806
:1016F00098476468F6E700BF500C0020037A052B7A
:1017000010B50C460FD0437A23B1084A0849204649
:10171000FFF72CFA07492046FFF728FA2046BDE8D4
:101720001040FFF711BA002AF8D0F3E7DF4C0000B1
:10173000E44C0000044D0000C38873B504460D4618
:1017400033B1144A00921449144A2846FFF70EFA9E
:10175000217A05291CD0637A4BB1A088FFF7C2FD1E
:101760000F4B104953F820202846FFF7FFF9227A43
:101770000D4BA08853F822600021FFF795FD0B491F
:1017800003463246284602B0BDE87040FFF7EEB986
:1017900002B070BDDF4C0000EF4C0000E74C0000D1
:1017A000AC4C0000E44C0000144D0000074D00005C
:1017B0002DE9F04385B01F460C9D002306460C46DC
:1017C000904695F80C902B7329463846FFF7B4FFE6
:1017D000B8F1060F09D8DFE808F00412181F283303
:1017E000400031462846FFF7C1F900222946384615
:1017F000FFF784FF85F80C9005B0BDE8F083226800
:1018000031462846FFF7B2F9EFE7D4E90023314625
:101810002846FFF7ABF9E8E7A36800933146D4E91F
:1018200000232846FFF7A2F9DFE7E3680193A368E6
:1018300000933146D4E900232846FFF797F9D4E70F
:1018400023690293E3680193A36800933146D4E9C6
:1018500000232846FFF78AF9C7E7636903932369E2
:101860000293E3680193A36800933146D4E900230F
:101870002846FFF77BF9B8E708292DE9F84F80469D
:101880000E4617461C4638D8002593F80C901D7359
:1018900019461046FFF750FFDFF880A0DFF880B050
:1018A000AE422CD918F8052059462046FFF75EF9BC
:1018B0000135082DF4D11749DFF868B02046FFF74D
:1018C00055F90025AE421FD918F805A000F0F4FD27
:1018D00050445946437813F0970F14BF52462E22B6
:1018E0002046FFF743F90135082DEBD101222146AF
:1018F0003846FFF703FF84F80C90BDE8F88F514697
:101900002046FFF733F9D3E703492046FFF72EF9C6
:10191000E9E700BFDA4C0000D84C0000D64C0000CC
:10192000D04C0000DC4C00002DE9F84FB0F806A0C8
:101930009DF82890174603321C1D13444279B4FBCE
:10194000FAF55344B3FBFAF3DBB29A4206468846F3
:101950000AFB154403D21449BA20FFF721F83DB918
:10196000AAEB040BBB4528BFBB4627B9BDE8F88FDF
:101970003668013DF3E7043408EB050034445A4669
:10198000B9F1000F0DD02146A7EB0B0700F0B8FD11
:10199000BA455D443668D3464FF0000428BFBB46C5
:1019A000E3E701462046EFE77C4D0000FFF742B831
:1019B000F8B546790146721E0546002393422D680C
:1019C00003D30024A64202D8F8BD0133F6E70F681E
:1019D0002846FFF795F801343946F3E72DE9F84337
:1019E000868ACD1C0746FFF763F8043E354404465B
:1019F000B5FBF6F5F0B14FF48073EDB28380C6808D
:101A0000013D076081464FF00008A84512D23846D4
:101A1000FFF74EF8064648B163790133637108F168
:101A20000108C9F8000007608146EEE72046FFF78D
:101A3000BFFF34462046BDE8F88301210430FEF79D
:101A4000DCBF10B5012104460430FEF7E1FF10F0C1
:101A5000FF0F04D12046BDE81040FFF7A9BF10BD1D
:101A600013B500240094FFF75FFF02B010BD13B55B
:101A700001240094FFF758FF02B010BD0D4930B5A6
:101A8000A1F58C720225914201D800200EE08B1A3C
:101A9000DB1093FBF5F302EBC30452F833308342BF
:101AA00005D802D204F10802EDE7606830BD214696
:101AB000E9E700BF044F000008B5FFF7DFFF024B66
:101AC000002808BF184608BDD84D000010B5054CC9
:101AD00022681AB904495120FEF762FF2368BDE865
:101AE00010401847741000209552000000F180400B
:101AF00000F5E040002382B0036003680193019B7E
:101B000002B07047F0B5514B514C1B6885B0DBB14A
:101B10004FF4827094F82E20FFF7E8FF12B194F88A
:101B20002F30A3B1636802932389ADF80C30E368CA
:101B300000218DF80410002B44D12374236801A8E0
:101B40009847002384F82F3094F82E3003B3414B8C
:101B50001B68EBB14FF48070FFF7C8FF94F82D209D
:101B6000638B91B28B4238D95B1A21899BB2638314
:101B7000CB1A616801EB4301374BC3F82C16C3F84D
:101B800030264FF48270FFF7B1FF344B01221A6008
:101B9000334B1B685BB14FF48870FFF7A7FF00233E
:101BA00004A82374022300F80C3D236898472D4BAA
:101BB0001B6813B34FF48A70FFF798FF0023237458
:101BC00005B0F0BD208B608363602081E160002A56
:101BD000B4D1214B01221A60B0E7D2D1E3680121D0
:101BE00084F82F103BB1002161831B49C1F82C36CA
:101BF000C1F83026C5E76383C3E766694FF0004745
:101C00000125002EDCD0B6FA86F227FA02F346321E
:101C1000920026EA030602F1804303F5E0431B68C5
:101C2000002BEED01046FFF761FFA2F58C72D308AF
:101C300082F00402C2F380028DF808308DF804505F
:101C40008DF80920236801A89847DAE7047100405D
:101C50007C100020007100400070004004700040C3
:101C60001071004014710040024940F2C710FEF7A5
:101C700097BE00BF385300001F2810B5044601D995
:101C8000FFF7F2FF012303FA04F44FF0A043C3F877
:101C90000C4510BD1F2810B5044601D9FFF7E4FF1D
:101CA000012303FA04F44FF0A043C3F8084510BD24
:101CB0004FF0402313B5D3F818310BB3114B124C2E
:101CC00000221A601B680193019B236823B90F4906
:101CD00040F28E20FEF764FEE07FFF2803D0A37F52
:101CE0005BB1FFF7C9FF002363772372D4E90031AA
:101CF000074802B0BDE810401847FFF7CBFFF2E7F6
:101D000002B010BD18410040AC100020ED520000A0
:101D1000B41000200023435082B043580193019B2C
:101D200002B07047F0B5504C236887B023B94F49D3
:101D300040F22D20FEF734FE4D4AD2F824311546EC
:101D4000A3B14FF492711046FFF7E4FFD2F80431CB
:101D500063B9A368C2F808330223A360A368C2F87A
:101D6000043301231362536107B0F0BDD5F8043189
:101D7000002B49D03F4F3E484FF48271FFF7CAFF16
:101D80000FCF01AE0FC63B68336094F82E307BB1A5
:101D9000237B012B0CBFD5F83C25D5F84C250292AE
:101DA000022B334B0CBFD3F83C35D3F84C3503939F
:101DB0004FF4B0712E48FFF7ADFF4FF4AE712C48D1
:101DC000FFF7A8FF94F8303013B194F82E303BB1F0
:101DD000274B0022C3F80022A260274AC3F8082339
:101DE000234AD2F8C434C2F8C4349A0736D5012342
:101DF0008DF8003094F830300BB984F82F30D4E9E6
:101E0000003168469847AFE74FF4A4711848FFF7D0
:101E100081FF237B83B9174F0FCF01AE0FC63B68FD
:101E2000336094F83030002BDAD1C5F80032A3606B
:101E3000114BC5F80833D3E74FF40073C5F80032EF
:101E400040F20223A36003F1CE73C5F80833A36800
:101E5000C5F804330123AB602B6285E713F004035C
:101E600018BF0223C4E700BFD01000207F5300003A
:101E700000300040DC10002002029C010369C168B0
:101E80008B429DBF8268D21802F1FF3203F1FF330B
:101E900094BF501A581A70472DE9F041D0E90267F3
:101EA0000446F61B4068964288461546384405D9D4
:101EB00000F026FB3D44E560BDE8F0813246AD1BF5
:101EC00000F01EFB2A4608EB0601606800F018FBD4
:101ED000F1E72DE9F843C5680646894617464FF0F5
:101EE00000083469B3687068A54228BFE418013C53
:101EF000621B5C1BBC4228BF3C46944228BF144670
:101F000049462844224600F0FBFAB3682544AB4218
:101F100008BF00253F1BA044A144F560E1D1404625
:101F2000BDE8F88310B5114C114AA2610223C4E93F
:101F30000433104BE361A2644FF400730E4A236232
:101F4000E264002310220D49A362E01D6362E36294
:101F5000A3656365E365226500F0D4FC084920466B
:101F600000F0D0FC2023A37110BD00BF6C13002033
:101F7000DA5300001411002004110020E353000084
:101F8000E7530000F8B5184C182300FB033503FB9A
:101F900000402544C46A012C0F46164611D003D3D5
:101FA000022C1BD000240AE02846FFF767FF864278
:101FB00005D8324639462846FFF76EFF344620469C
:101FC000F8BD2846FFF75AFF8642344628BF04462C
:101FD000224639462846FFF75FFFF0E72846BDE86E
:101FE000F840FFF776BF00BF6C13002070B50B4BB5
:101FF0001B7804460D4616460BB9FFF793FF0020E9
:10200000FEF7F4FB324629462046FFF7BBFF0446A5
:102010000020FEF7FBFB204670BD00BF6C130020C4
:10202000FFF780BF10B511461C461A460020FFF787
:10203000DDFF204610BD00000C4B1B78062B10D195
:102040000B4B1B681A070CD10A4B186800F0F00301
:10205000302B08D000F0E000A0F140035842584176
:102060007047002070470120704700BFE00F00F06C
:10207000E40F00F0E80F00F0094B1B78062B0CD1A1
:10208000084B1B681A0708D1074B186800F0F000CE
:10209000A0F130035842584170470020704700BFFC
:1020A000E00F00F0E40F00F0E80F00F008B5FFF7D4
:1020B000C3FF28B17D4B7E4A1B68C3F30423136022
:1020C000FFF7DAFF10B17B4B7B4A1A60FFF7B4FFD2
:1020D00028B17A4B7A4A1B68C3F342331360FFF787
:1020E000CBFF20B1774AD36823F08073D360FFF72A
:1020F000A3FF40B14FF080430022C3F80C21C3F886
:102100001021C3F83825FFF7B7FF10B16E4B03223B
:102110001A60FFF7B1FF40B16C4B05221A60012233
:102120009A6700229A603F225A60694B1B78062BFF
:1021300050D1684B1B6819074CD1674B1B6803F0E3
:10214000F003502B46D14FF08052644BD2F8041468
:10215000C3F82015D2F80814C3F82415D2F80C14CB
:10216000C3F82815D2F81014C3F82C15D2F814149B
:10217000C3F83015D2F81814C3F83415D2F81C146B
:10218000C3F84015D2F82014C3F84415D2F824142B
:10219000C3F84815D2F82814C3F84C15D2F82C14FB
:1021A000C3F85015D2F83014C3F85415D2F83414CB
:1021B000C3F86015D2F83814C3F86415D2F83C148B
:1021C000C3F86815D2F84014C3F86C15D2F844244B
:1021D000C3F87025FFF730FF28B1414B414A1B6817
:1021E00003F04F031360FFF727FF48B14FF0804320
:1021F000D3F80024D20744BF6FF00102C3F80024D3
:10220000394B1B68062B08D1384B1B68062B01BFC6
:10221000374A136843F480631360364AD2F8883033
:1022200043F47003C2F88830BFF34F8FBFF36F8F52
:102230004FF01023D3F80022002A03DBD3F8043236
:10224000002B2FDA2C4B0122C3F80425D3F80024ED
:10225000002AFBD04FF010221521C2F80012D3F84B
:102260000024002AFBD04FF010231522C3F80422CB
:10227000214B1A46D3F800140029FBD00021C3F8E3
:102280000415D2F80034002BFBD0BFF34F8F19494F
:102290001A4BCA6802F4E0621343CB60BFF34F8F5E
:1022A00000BFFDE7164B174A1A6008BD2403001053
:1022B0004035014074C007400DF0ADBA4402001033
:1022C0003C050040F0ED00E0A00500401056004045
:1022D000E00F00F0E40F00F0E80F00F000C0004055
:1022E00058020010E40E00403001001034010010CC
:1022F0003C17004000ED00E000E001400400FA055A
:10230000100000200090D00382B001238DF8073028
:102310009DF80730114B1860596044F20101884262
:102320009A6012D044F20201884206D1DA60DA687B
:1023300012889A61DA685268DA6172B69DF80730DD
:10234000002BFBD162B602B070471A611A6992681D
:102350005A611A6912689A611A69ECE7141300202D
:102360002DE9F043064685B00F46154672B6FFF7D5
:10237000B1F9FEF7D7FF0028FBD1DFF89480B8F859
:10238000004044F2010324049E4244F0010416D0AC
:1023900044F202039E422BD12B886A6817492046DB
:1023A000FFF742F9164B1B68DB0700D500BE2A4633
:1023B0003946304605B0BDE8F043FFF7A5BFD5F874
:1023C00008904846FFF778FB2B68029701936B68EB
:1023D00000934A4603460B492046FFF749F9B8F8EF
:1023E00000000949000440F00100FFF70FF9D9E7A8
:1023F0003A4606492046FFF70DF9D3E7EE530000B1
:10240000F0ED00E0085400002E540000425400009B
:10241000E80900200649074A074B9B1A03DD043BE5
:10242000C858D050FBDCFFF741FEFDF709FF000064
:10243000F055000000000020F8090020FEE7FEE74C
:10244000FEE7FEE7FEE7FEE7FEE7FEE7FEE7FEE764
:1024500008B50021044600F09FFB044B1868C36BCD
:1024600003B19847204601F0B1FF00BF5C54000063
:1024700070B50D4E0D4D761BB61006D000240134FC
:1024800055F8043B9847A642F9D1094E094D761BF1
:1024900001F09EFFB61006D00024013455F8043B2D
:1024A0009847A642F9D170BDC0090020C00900209C
:1024B000CC090020C0090020044B054A1B685B6B57
:1024C000002B08BF1346D3F8EC007047140000201F
:1024D0004004002082B049B15AB16BB113780B604F
:1024E0001278101C18BF012002B0704701A9002A01
:1024F000F3D1104602B070476FF00100F4E700BF5F
:10250000844641EA000313F003036DD1403A41D3FE
:1025100051F8043B40F8043B51F8043B40F8043BBD
:1025200051F8043B40F8043B51F8043B40F8043BAD
:1025300051F8043B40F8043B51F8043B40F8043B9D
:1025400051F8043B40F8043B51F8043B40F8043B8D
:1025500051F8043B40F8043B51F8043B40F8043B7D
:1025600051F8043B40F8043B51F8043B40F8043B6D
:1025700051F8043B40F8043B51F8043B40F8043B5D
:1025800051F8043B40F8043B51F8043B40F8043B4D
:10259000403ABDD2303211D351F8043B40F8043BED
:1025A00051F8043B40F8043B51F8043B40F8043B2D
:1025B00051F8043B40F8043B103AEDD20C3205D3FD
:1025C00051F8043B40F8043B043AF9D2043208D0F5
:1025D000D2071CBF11F8013B00F8013B01D30B8867
:1025E00003806046704700BF082A13D38B078DD045
:1025F00010F003038AD0C3F10403D21ADB071CBF17
:1026000011F8013B00F8013B80D331F8023B20F880
:10261000023B7BE7043AD9D3013A11F8013B00F8B9
:10262000013BF9D20B7803704B7843708B78837041
:1026300060467047F0B4860743D0541E002A3ED04F
:10264000CAB2034602E014F1FF3438D303F8012B79
:102650009D07F8D1032C2BD9CDB245EA05250F2CC7
:1026600045EA054516D9A4F110073F0903F12006F4
:1026700006EB071603F1100242E9045542E9025540
:102680001032B242F8D104F00F040137032C03EBEF
:1026900007130DD91E462246043A032A46F8045B66
:1026A000FAD8221F22F003020432134404F0030478
:1026B0002CB1C9B21C4403F8011B9C42FBD1F0BCF5
:1026C000704714460346C5E770B5054688B008460E
:1026D0000C4600F075F9224AAB6B04940126441CA9
:1026E00004A90692022203940590AC680796CDE9EE
:1026F00001121BB3616EB4F90C30CE079AB201D44B
:10270000900525D5910406D4626E43F4005322F45B
:102710000052A3816266284601AA214600F052FDBC
:10272000636E00280CBF0A254FF0FF35DA0702D48C
:10273000A3899B0506D5284608B070BD284600F041
:10274000ABFBD7E7A06D00F0EBFE284608B070BDEC
:10275000A06D00F0E3FEB4F90C309AB2D2E700BFEE
:1027600074540000024B01461868FFF7ADBF00BF6C
:102770001400002000290CBF022200224FF48063C5
:1027800000F000B82DE9F0435D4C256883B00446A5
:10279000884616461F4615B1AB6B002B7ED0022E25
:1027A00005D0012E00F2A980002FC0F2A680636E32
:1027B000DA0735D52146284600F012FB216B41B1DE
:1027C00004F14003994202D0284600F007FC0023A0
:1027D0002363B4F90C3000221806A261626061D450
:1027E00023F44A6323F00303022EA3811FD10025A3
:1027F000616E002004F1430243F00203A060C907A8
:102800004FF00100A3812260C4E9042004D49B0599
:1028100002D4A06D00F084FE284603B0BDE8F0832A
:10282000A3899B05C6D4A06D00F078FEC2E701AB7A
:102830006A462146284600F075FEA3891843A08108
:10284000002F36D1009F384600F0E4FE8046002875
:1028500042D0A38943F08003A381AB6B7BB3009A82
:10286000B4F90C30C4F80080BA421CBF43F40063D2
:10287000A381012E04BF43F00103A3819BB213F097
:102880000802C4E904871ED1A260656E15F0010537
:10289000BDD00025284603B0BDE8F083284600F0EF
:1028A000FBFA7CE72169284600F098FBB4F90C306C
:1028B00096E7B8F1000FC6D0AB6B002BCFD12846FE
:1028C00000F0EAFACBE7DA0704D57F420022A761DD
:1028D000A260DAE7A760D8E7DDF80090B94504D137
:1028E000B4F90C304FF0FF3582E7484600F092FE15
:1028F00080460028F4D04F46ABE74FF0FF358BE71A
:102900001400002080EA0102844612F0030F4FD128
:1029100011F0030F32D14DF8044D11F0040F51F8AE
:10292000043B0BD0A3F101329A4312F0803F04BF65
:102930004CF8043B51F8043B16D100BF51F8044B4E
:10294000A3F101329A4312F0803FA4F101320BD17E
:102950004CF8043BA24312F0803F04BF51F8043B03
:102960004CF8044BEAD023460CF8013B13F0FF0F60
:102970004FEA3323F8D15DF8044B704711F0010F93
:1029800006D011F8012B0CF8012B002A08BF704764
:1029900011F0020FBFD031F8022B12F0FF0F16BF5B
:1029A0002CF8022B8CF8002012F47F4FB3D1704723
:1029B00011F8012B0CF8012B002AF9D1704700BF48
:1029C00090F800F06DE9024520F007016FF0000C6F
:1029D00010F0070491F820F040F049804FF0000417
:1029E0006FF00700D1E9002391F840F000F10800F2
:1029F00082FA4CF2A4FA8CF283FA4CF3A2FA8CF32A
:102A00004BBBD1E9022382FA4CF200F10800A4FA90
:102A10008CF283FA4CF3A2FA8CF3E3B9D1E90423E4
:102A200082FA4CF200F10800A4FA8CF283FA4CF31B
:102A3000A2FA8CF37BB9D1E9062301F1200182FAD5
:102A40004CF200F10800A4FA8CF283FA4CF3A2FADB
:102A50008CF3002BC6D0002A04BF04301A4612BAE9
:102A6000B2FA82F2FDE8024500EBD2007047D1E9EC
:102A7000002304F00305C4F100004FEAC50514F07B
:102A8000040F91F840F00CFA05F562EA05021CBF4C
:102A900063EA050362464FF00004A9E721B1FF2A6B
:102AA00004D80A7001207047084670478A230360E3
:102AB0004FF0FF30704700BF38B5314B1B680546FB
:102AC0000C4613B19A6B002A3AD0B4F90C2093B299
:102AD00018070CD52069A8B113F0010220D0636952
:102AE00000225B42A361A26000B3002038BDD9067A
:102AF0003ED5580728D4206942F00803A3819BB231
:102B00000028E9D103F42072B2F5007FE4D0284612
:102B1000214600F035FDA389206913F00102DED1C2
:102B2000990758BF6269A2600028DED1B4F90C3061
:102B30001A06DBD543F04003A3814FF0FF3038BDC8
:102B4000184600F0A9F9C0E7216B51B104F1400328
:102B5000994204D0284600F041FAB4F90C20002331
:102B6000236300232069636022F024022060C3E70E
:102B700042F0400209232B604FF0FF30A28138BDA4
:102B800014000020024B13B1024800F079B87047DE
:102B900000000000092F00002DE9F04F354B85B0F3
:102BA0000F460390186800F0B9FC334B1B68019383
:102BB00003F5A4730293B946019BD3F848613EB371
:102BC000DDF808A04FF001087468651E0FD40134C9
:102BD00006EB84040027B9F1000F20D0D4F80031AF
:102BE0004B451CD0013D6B1CA4F10404F3D1234BD5
:102BF00073B1D6E90032002A34D1002B32D03046EE
:102C0000CAF8003000F00EFDDAF80060002EDBD1CB
:102C1000184B186805B0BDE8F04F00F081BC736830
:102C20002268013BAB420CBF75602760002AD9D0F7
:102C3000D6F88811D6F804B008FA05F30B4208D18B
:102C4000904773685B45B7D1DAF80030B342C9D01A
:102C5000B2E7D6F88C01D4F88010034207D103986C
:102C60009047EEE7B2461E46002EADD1D0E70846AB
:102C70009047E6E7AC0500205C54000025360000D4
:102C8000002301461A46184601F03EBAB1F90C304D
:102C90009AB22DE9F0410C461107804644D462688F
:102CA00043F40063002AA38159DDA56A002D53D0A7
:102CB00000229BB2D8F80060E169C8F8002013F444
:102CC000805240F0838001234046A847421C4AD0EE
:102CD000A389A56AE1695B0705D56268236B801A41
:102CE0000BB1E36BC01A024600234046A847471CBD
:102CF00045D0B4F90C302269226023F4006300222D
:102D0000A381DB04626000D52065216BC8F80060F8
:102D100011B304F14003994202D0404600F05EF93D
:102D200000202063BDE8F0812669AEB125682660E9
:102D300092070CBF63690023AD1BA3600AE02B461A
:102D40003246676AE1694046B8470028A5EB0005AE
:102D500006442BDD002DF2DC0020BDE8F081E26BA3
:102D6000002AA2DCF8E7D8F80030002BB0D01D2BE9
:102D700001D0162B2CD1C8F800600020EDE7D8F860
:102D800000101D291AD8154BB4F90C20CB40DB4399
:102D900013F0010314D1256922F40062C4E9005341
:102DA000D504A281B1D50029AFD1ADE7A38943F005
:102DB0004003A3814FF0FF30BDE8F081B4F90C204F
:102DC00042F04002A2814FF0FF30C6E7206D82E75B
:102DD000A38943F04003A381BFE700BF0100402067
:102DE00038B50D46044608B1836BA3B1B5F90C00A4
:102DF000B8B16B6EDB0701D481051AD52046294690
:102E0000FFF744FF6B6EDA07044602D4AB899B05DB
:102E10000AD5204638BD00F03FF8B5F90C0000286F
:102E2000E7D10446204638BDA86D00F079FB204666
:102E300038BDA86D00F072FBE0E700BF10B50023BD
:102E400004468181C281C0E9003383604366C0E9E2
:102E500004338361194608225C30FFF7EBFB074817
:102E60000749084A084BE362C4E90740C4E909126C
:102E700004F15800BDE8104000F04CBB8140000058
:102E8000A5400000E140000001410000014900F0C0
:102E900017BB00BFED41000010B50446124800F01A
:102EA0003DFBA26BD2B904F53B731048C4F8E8327D
:102EB0000321C4F8E022E063C4F8E412606804214E
:102EC000FFF7BCFF01220921A068FFF7B7FF02222C
:102ED0001221E068FFF7B2FF0123A3630248BDE8B7
:102EE000104000F01DBB00BFF01300208D2E00002D
:102EF000014800F013BB00BF04140020014800F09B
:102F00000FBB00BF0414002038B50A4C0A4D641BE7
:102F1000A4100AD004F18043013B05EB8305013C7A
:102F200055F804399847002CF9D1BDE8384001F034
:102F300055BA00BFD0090020CC090020F8B5244FB5
:102F40000C46064600F0D0FEBB685D68C4F57E61A5
:102F50000F3125F00305294421F47F6121F00F0191
:102F6000A1F58054B4F5805F07DB0021304601F005
:102F700075F8BB682B44984204D0304600F0BAFE86
:102F80000020F8BD6142304601F068F801300DD0F4
:102F9000104BBA6819682D1B45F001053046091B16
:102FA0005560196000F0A6FE0120F8BD00213046F2
:102FB00001F054F8BA68831A0F2BDEDD064C054980
:102FC000246843F00103001B53600860D5E700BF8D
:102FD000B005002034130020B8090020002953D088
:102FE000F8B50C46064600F07FFE54F804CC714F4D
:102FF0002CF00101A4F108056B18B8685A689842D2
:1030000022F0030253D01CF0010F5A6003EB0200C0
:103010003BD154F808CC4068A5EB0C0507F1080E2D
:10302000AC687445614400F0010075D0D5F80CC05F
:10303000C4F80CC0CCF8084060B341F001036B60E9
:103040006950B1F5007F50D34B0A042B70D88B091F
:1030500003F13904E40003F1380238193B59083808
:10306000984278D05A6822F003028A4271D99B684C
:103070009842F7D1C368C5E902039D60C560304638
:10308000BDE8F84000F036BE7047406800F001002F
:103090000028D2D19868484C1144A04241F0010266
:1030A00062D0DB68C36098606A606950C9E71CF051
:1030B000010F0A4407D154F8083CED1A1A44D5E927
:1030C0000213CB6099603D4B1B6842F001019342B3
:1030D0006960BD6004D83A4B30461968FFF72EFF8F
:1030E0003046BDE8F84000F005BEC90878684A1CC3
:1030F000012389108B40034307EBC20157F83200CC
:103100007B600839C5E9020147F83250C560304696
:10311000BDE8F84000F0EEBD002845D10A44D3E9EF
:10312000021342F00100CB6099606860AA50D7E7B3
:10313000142B08D9542B1ED80B0B03F16F04E40099
:1031400003F16E0289E703F15C04E40003F15B0222
:1031500083E718468EE793107968012202FA03F399
:103160000B437B60034686E7C7E90455C5E90200C7
:103170006A606950B4E7B3F5AA7F06D8CB0B03F1B8
:103180007804E40003F1770267E740F25452934277
:1031900006D88B0C03F17D04E40003F17C025CE7AC
:1031A0004FF47E747E2258E741F001026A60196094
:1031B00096E700BFB0050020B8050020BC0900203C
:1031C000641300209368002B00F0E4802DE9F04F99
:1031D000B1F90C309BB20C46190783B08246904679
:1031E00035D522699AB313F00202D8F800603DD0B9
:1031F0000027D4F824B0D4F81CC0DFF8C0923D46B4
:103200004D452B463A4628BF4B4661465046D5B100
:10321000D847002840F3C680D8F808301B1A074466
:103220002D1AC8F80830002B00F0B080D4F81CC06C
:10323000D4F824B04D452B463A4628BF4B4661464C
:103240005046002DE4D1D6E900750836D8E721466E
:103250005046FFF731FC002840F02A81B4F90C30C9
:10326000D8F800609BB213F00202C1D113F001093B
:103270005DD1A76820684D46002D54D09A0540F1D5
:103280009B80AF42BB4600F2D88013F4906F2FD0E2
:10329000D4E9041707EB4707A0EB010B07EBD7773F
:1032A000681C7F105844B8423A4684BF07463A46E5
:1032B0005B0540F1D3801146504600F0BBF9002871
:1032C00000F0F0805A4621690190FFF719F9A289B0
:1032D000019B22F4906242F08002A281A7EB0B02D4
:1032E00003EB0B00676123612060A2602F46AB46B1
:1032F0005A46494600F094FCA2682368D21B5B44FE
:103300002F46A26023600025D8F80830DB1BB944A3
:10331000C8F80830002B39D0B4F90C30A768206801
:103320009BB2002DAAD1D6E900950836A4E7334612
:103330009146104617464E469B46002F6BD00028FC
:1033400071D0D4E904122068B9454B4628BF3B46EA
:10335000884203D9A5681544AB4271DC9A4200F358
:1033600093801346656AE16932465046A847051EB8
:1033700018DDB9EB05090FD00120D8F808305B1B28
:103380002E447F1BC8F80830002BD6D1002003B094
:10339000BDE8F08F0020704721465046FFF720FD22
:1033A0000028EAD0B4F90C3043F040034FF0FF306E
:1033B000A38103B0BDE8F08F2369834215D361690F
:1033C000A94212D83C4B676A9D4294BF2B466FF0CE
:1033D00000434A4693FBF1F3504601FB03F3E169D6
:1033E000B847071EDEDDED1B8EE7AF4228BF2F4634
:1033F0003A46494600F014FCA3682268DB1B3A44B5
:10340000A3602260002BEED121465046FFF7E8FC76
:103410000028E8D0C6E70BF1080353E902679B4692
:103420000833002FF9D03A460A21304600F0A8FBB5
:1034300038B30130A0EB060983E72F46AB4657E7C8
:1034400031462A4600F0ECFB23682B4423602146DA
:103450005046FFF7C5FC00288BD0A3E7504600F08C
:103460004FFC034600287FF439AF21695046FFF72F
:10347000B5FDB4F90C300C2223F08003CAF800200B
:1034800092E707F101095CE71A463146019300F023
:10349000C7FB019BA1682268C91A1A44A160226077
:1034A0001D4666E70C23CAF80030B4F90C307BE700
:1034B0004FF0FF306BE700BFFEFFFF7F00FCFF7F98
:1034C0002DE9F84310F538771FD0884606464FF0AF
:1034D0000009D7E90154013D11D4A389012B05F15D
:1034E000FF352146304606D9B4F90E30013302D0FB
:1034F000C04749EA00096B1C04F16804EDD13F683C
:10350000002FE6D14846BDE8F883B9464846BDE8F5
:10351000F88300BF704700BF704700BF704700BF0F
:10352000704700BF70B50C46B1F90E10002996B077
:1035300015461E460FDAA289002312F08000336080
:1035400004D14FF480632B6016B070BD4022184642
:103550002A6016B070BD6A4600F0B0FE0028EADBB3
:10356000019B03F47043A3F50053B3FA83F35B09A3
:103570004FF480624FF4006033602A6016B070BD73
:103580008A8992070B4606D501F1430201211A6090
:10359000C3E90421704770B582B001AB6A460C469E
:1035A0000546FFF7BFFF00990646284600F042F89F
:1035B000B4F90C30D8B11649E963019A009920603A
:1035C00043F08003A381C4E904011AB93343A38102
:1035D00002B070BD2846B4F90E1000F083FEA0B111
:1035E000A38923F0030343F001031BB2EEE79A051E
:1035F000EED423F0030304F1430243F0020301215C
:10360000A3812260C4E90421E2E7B4F90C30DDE7CC
:103610008D2E0000024B0146186800F00BB800BF69
:1036200014000020024B01461868FFF7D7BC00BF0A
:10363000140000202DE9F04F01F10B05162D83B089
:10364000064623D8102900F2B98000F04DFB102562
:1036500018230220C54F3B44A3F108025C68944242
:1036600000F06681636823F003032344D4E9025128
:103670005A68E96042F001028D6030465A6000F0FD
:1036800039FB0834204603B0BDE8F08F35F007055C
:1036900000F19480A94200F2918000F025FBB5F57D
:1036A000FC7FC0F083816B0A00F08F80042B00F256
:1036B0004681AB0903F1390003F1380CC300AB4F6D
:1036C0003B44A3F108015C68A14206D10CE0002A4A
:1036D00080F21D81E468A14206D0636823F00303F1
:1036E0005A1B0F2AF3DD60463C69DFF894C264453B
:1036F00071D0636823F003035A1B0F2A00F344813F
:10370000002AC7E904CC80F22681B3F5007F80F05F
:103710006981DB08591C7A6857F83180C4F8088041
:103720004FF0010E9B100EFA03F307EBC10E13438B
:10373000AEF10802E2607B6047F83140C8F80C4007
:103740008210012494409C424BD81C4206D120F0A8
:10375000030064001C4200F10400FAD007EBC0092A
:10376000CE468046DEF80C309E4507D122E1002A85
:1037700080F22981DB689E4500F01C81596821F0A8
:1037800003014A1B0F2AF2DDD3E9028E5C1945F0D2
:1037900001055D6042F00105C8F80CE03046CEF846
:1037A0000880C7E90444C4E902CC65605A5001931B
:1037B00000F0A0FA019B03F1080463E700240C2346
:1037C0002046336003B0BDE8F08F4FF40073402013
:1037D0004FF03F0C73E77B688210012494409C42B9
:1037E000B3D9BC68636823F00309A94503D3A9EBE7
:1037F00005030F2B7BDC5E4BDFF888A11A68DAF833
:103800000030013305EB020800F0488108F58058CC
:1038100008F10F0828F47F6828F00F084146304669
:1038200000F01CFCB0F1FF3F834600F0048104EB84
:103830000900584500F2FD804E4A13684344136066
:1038400000F04D81DAF8001001311BBFABEB000036
:103850001B18CAF800B013601BF0070300F0348196
:10386000C3F10801C3F580538B440833D844C8F32F
:103870000B08A3EB080841463046019200F0EEFB2E
:10388000431C019A00F04681A0EB0B01414441F03A
:1038900001011368C7F808B04344BC42CBF80410D8
:1038A000136015D0B9F10F0F40F230816068A9F1B3
:1038B0000C0121F0070100F0010004EB010C0843AA
:1038C0004FF0050E0F296060CCE901EE00F23A815D
:1038D000294A2A481168BC688B42016888BF136076
:1038E00062688B4222F0030288BF0360A7E062197E
:1038F00043F0010345F0010565603046BA6053604E
:1039000000F0F8F90834204603B0BDE8F08F2344F6
:10391000E1685A68A56842F00102E96030468D60AE
:103920005A6000F0E7F90834204603B0BDE8F08F94
:10393000DC68A34208BF02303FF4D6AE92E6142BF7
:1039400071D9542B00F2AD802B0B03F16F0003F102
:103950006E0CC300B3E6234430465A6842F00102BD
:103960005A60083400F0C6F98CE600BFB0050020AC
:1039700064130020341300205C1300206013002027
:10398000B8050020B8090020611945F0010E42F089
:103990000105C4F804E03046C7E90411C1E902CCCE
:1039A0004D60E25000F0A6F908346BE6E80805F136
:1039B00008034FE608F1010818F0030F0EF1080E96
:1039C0007FF4D0AE52E019441C464A68DB6854F8D4
:1039D000085F42F001024A603046EB609D6000F0F3
:1039E00089F94FE65A0A042A35D9142A6FD802F108
:1039F0005C01C9005B3207EB010E7958AEF1080E8D
:103A00008E4558D04A6822F003029A4202D989684A
:103A10008E45F7D1D1F80CE07B68C4E9021ECEF8E0
:103A20000840CC608CE603F15C0003F15B0CC30042
:103A300045E6BC4272D0BC68626822F0030295423F
:103A4000A2EB050302D80F2B3FF751AF304600F031
:103A500051F9002416E69A0902F13901C9003832F9
:103A6000C9E7D9F80090994540F0838010F0030F22
:103A7000A9F1080300F1FF30F3D17B6823EA0403C6
:103A80007B6064009C423FF6ACAE1CB9A9E66400C2
:103A900008F104081C42FAD040465FE608F110081D
:103AA000BCE6B3F5AA7F26D8EB0B03F1780003F14F
:103AB000770CC30003E67B6892104FF0010808FA08
:103AC00002F213437B60A8E74FF48053CEE6542AFA
:103AD00029D81A0B02F16F01C9006E328BE7C0F3CF
:103AE0000B0100297FF4AEAE09EB0802B96842F081
:103AF00001024A60ECE640F2545293421CD8AB0CEF
:103B000003F17D0003F17C0CC300D8E50123CBF861
:103B100004309BE701214FF00008BAE6164A13680B
:103B2000434413608EE6B2F5AA7F14D8DA0B02F193
:103B30007801C90077325EE74FF47E737F204FF043
:103B40007E0CBCE504F1080130460192FFF746FA0D
:103B5000019A1368BCE640F254518A4205D89A0C87
:103B600002F17D01C9007C3245E74FF47E717E226F
:103B700041E77B6885E700BF3413002000000000A8
:103B800001F0FF01102A2BDB10F0070F08D010F80E
:103B9000013B013A8B422DD010F0070F42B3F6D112
:103BA000F0B441EA012141EA014122F007047FF02B
:103BB00000070023F0E80256083C85EA010586EA82
:103BC000010685FA47F5A3FA87F586FA47F6A5FABE
:103BD00087F68EB9EED1F0BC01F0FF0102F00702CA
:103BE00032B110F8013B013A83EA010313B1F8D175
:103BF0000020704701387047002D06BF3546033856
:103C0000073815F0010F07D1013015F4807F02BF8E
:103C1000013015F4C03F0130F0BC0138704700BFDF
:103C20008842F0B40DD98B1883420AD9841832B176
:103C3000224613F8014D02F8014D9942F9D1F0BC2A
:103C400070470F2A49D940EA01039B0747D1A2F1E7
:103C500010031B0901F1200707EB031701F1100402
:103C600000F1100554F8106C45F8106C54F80C6C09
:103C700045F80C6C54F8086C45F8086C54F8046C62
:103C800045F8046C1034BC4205F11005EAD101334B
:103C900002F00F051B01032D1944034421D91F1FF6
:103CA0000E462C46043C56F804CB47F804CF032CB0
:103CB000F8D82C1F24F0030404342344214402F0D8
:103CC0000302002ABBD0013B0A4411F8014B03F860
:103CD000014F9142F9D1F0BC70470346F1E703462A
:103CE000F1E72A46EDE700BF0148FFF717BC00BF28
:103CF000F41300200148FFF713BC00BFF4130020A9
:103D00002DE9F04F924683B0002900F0A1800D46C6
:103D100080460AF10B04FFF7E7FF55F8042C162C38
:103D200022F00306A5F108073ED810242146A2453B
:103D30003FD88E4207EB060974DAC74B98684845AE
:103D400000F0AA80D9F8040020F001034B445B681E
:103D5000DB0740F18380D20734D551464046FFF758
:103D600069FC8246E0B155F8043C23F001033B4472
:103D7000A0F10802934200F0F980321F242A00F2D9
:103D80000781132A296800F2E68003462A46196053
:103D90005168596092689A6029464046FFF71EF9BB
:103DA0004046FFF7A7FF4FE024F00704002C214610
:103DB000BDDA4FF0000A0C235046C8F8003003B0BB
:103DC000BDE8F08F55F8083CA7EB030BDBF80420A7
:103DD00022F00302B3188B42BFDBDA46DBF80C108B
:103DE0005AF8080F321F242AC1600BEB03098860C0
:103DF00000F2C680132A296840F2C080CBF8081070
:103E00006968CBF80C101B2AA96800F2D8800BF166
:103E100010020835116069685160A96891601E46FA
:103E20005F4655467B68321B0F2A03F0010322D8F8
:103E300033437B60D9F8043043F00103C9F8043000
:103E40004046FFF757FFAA46504603B0BDE8F08F43
:103E5000114603B0BDE8F04FFFF7ECBB20F00300C4
:103E600033188B4261DBD9E902121E46CA6007EBA8
:103E700003099160D6E73919234342F001027B60C0
:103E80004A60D9F8043043F001030831C9F804301E
:103E90004046FFF7A3F8D3E7406820F00309B14498
:103EA00004F11000814577DAD2073FF556AF55F897
:103EB000082CA7EB020BDBF8042022F0030291444C
:103EC000484587DCDA46DBF80C105AF8080F321F39
:103ED000242AC160886000F2A180132A296840F278
:103EE0009B80CBF808106968CBF80C101B2AA968D6
:103EF00000F29B800BF11002083511606968516077
:103F0000A96891600BEB0401A9EB040242F00102E5
:103F100099604A60DBF8043003F001031C4340461B
:103F2000CBF80440FFF7E6FE8EE7D3073FF515AF69
:103F300055F8083CA7EB030BDBF8042022F0030242
:103F4000104483198B42FFF645AFD9E90212DA46D5
:103F5000CA60916042E701606B6843601B2A3AD8EF
:103F600005F1080200F10803A96810E750F8043CC5
:103F700023F003031E4407EB060953E7524649E7C3
:103F8000294650461E465F46FFF74AFE554649E71A
:103F90002946FFF745FEFFE62744A9EB040949F04F
:103FA00001029F607A6055F8043C03F001031C4352
:103FB000404645F8044CFFF79DFEAA4644E7CBF87F
:103FC0001010E968CBF81410242A10D029690BF1DD
:103FD000180210351EE7AB688360EB68C360242AC3
:103FE00010D005F1100200F110032969CFE62A690B
:103FF000CBF818206A69CBF81C20A9690BF12002C4
:10400000183507E72B6903616B694361A96905F1FD
:10401000180200F11803BAE652466EE729465046E8
:104020000193FFF7FDFD019B6CE7CBF81010E968E9
:10403000CBF81410242A04D029690BF1180210358A
:104040005BE72A69CBF818206A69CBF81C20A969BC
:104050000BF12002183550E7B005002038B5074CA9
:10406000002305460846236000F0A2F9431C00D057
:1040700038BD2368002BFBD02B6038BD081400200E
:1040800010B50C46B1F90E1000F054F9002803DB0E
:10409000236D0344236510BDA38923F48053A381BA
:1040A00010BD00BF2DE9F0411646B1F90C201F46A6
:1040B000D3050C460546B1F90E1007D500220223A0
:1040C00000F022F9B4F90C20B4F90E1022F4805259
:1040D000A2813B4632462846BDE8F041FDF7A2BF2B
:1040E00010B50C46B1F90E1000F00EF9A389421C70
:1040F0000EBF23F4805343F480532065A38110BD89
:10410000B1F90E1000F060B82DE9F8432B4D0646CA
:10411000286898460F469146FFF700FA284B1C681E
:10412000D4F84831002B3DD05A681F2A0DDC02F12B
:10413000010C16BB0232C3F804C0286843F8227091
:10414000FFF7EEF90020BDE8F8831E4B7BB34FF478
:10415000C870FFF75FFA034648B3D4F8482100213E
:10416000C0E900214FF0010CC4F848010A46C0F82C
:104170008811C0F88C11002EDCD003EB82010124E1
:10418000C1F88890D3F8880194402043022EC3F8E8
:104190008801C1F80881CDD1D3F88C110C43C3F844
:1041A0008C41C7E704F5A673C4F84831BCE728681A
:1041B000FFF7B6F94FF0FF30C5E700BFAC050020B0
:1041C0005C5400001536000038B5074C0023054646
:1041D0000846236000F0C4F8431C00D038BD2368B3
:1041E000002BFBD02B6038BD0814002070B50029CF
:1041F00048D005460C4610B1836B002B48D0626E48
:10420000B4F90C30D00740D4990530D52146284662
:10421000FEF73CFDE36A064633B1E169284698475C
:104220000028B8BF4FF0FF36A3891A063CD4216B93
:1042300041B104F14003994202D02846FEF7CEFE78
:1042400000232363616C21B12846FEF7C7FE0023DB
:104250006364FEF74DFE636E0022DB07A2811FD56B
:10426000A06DFFF759F9FEF749FE304670BDA06D0D
:10427000FFF754F9B4F90C30002BC7D1666E16F075
:10428000010616D00026304670BD002BFAD0BDE7DF
:10429000FEF702FE626EB4F90C30D007F5D4B3E736
:1042A000A06DFFF73DF9DBE721692846FEF796FE92
:1042B000BDE7A06DFFF734F9304670BD38B50B4649
:1042C000074C0546114618460023236000F050F8BD
:1042D000431C00D038BD2368002BFBD02B6038BDB9
:1042E0000814002038B5074C002305460846236013
:1042F00000F046F8431C00D038BD2368002BFBD0EB
:104300002B6038BD0814002070B50D46084C1146CE
:1043100006461A4628460023236000F039F8431C5D
:1043200000D070BD2368002BFBD0336070BD00BF90
:104330000814002070B50D46084C114606461A4672
:1043400028460023236000F02BF8431C00D070BDEA
:104350002368002BFBD0336070BD00BF0814002021
:10436000024B58221A604FF0FF30704708140020AB
:10437000024B58221A604FF0FF307047081400209B
:10438000024B58221A600020704700BF081400201A
:10439000024B58221A604FF0FF307047081400207B
:1043A000024B58221A604FF0FF307047081400206B
:1043B000044A05491368002B08BF0B4618441060D7
:1043C000184670476813002010140020FEE700BF55
:1043D000F8B500BFF8BC08BC9E467047F8B500BFF2
:1043E000F8BC08BC9E46704720427574746F6E001E
:1043F000536F667477617265000000000000000072
:104400000338FDD870476D61696E2E63004C6F678D
:1044100020696E697469616C697A656421004C6F0A
:104420006F70696E6700000000000000000000006F
:104430000338FDD870472E2E2F2E2E2F6E72663524
:10444000782D626173652F2F73646B2F6E726635E2
:104450005F73646B5F31352E302E302F636F6D705C
:104460006F6E656E74732F6C6962726172696573C9
:104470002F7574696C2F6170705F7574696C5F70F3
:104480006C6174666F726D2E630048415244204621
:1044900041554C5420617420307825303858002024
:1044A0002052303A202030782530385820205231A0
:1044B0003A2020307825303858202052323A2020B7
:1044C000307825303858202052333A202030782553
:1044D0003038580020205231323A20307825303898
:1044E0005820204C523A202030782530385820204F
:1044F0005053523A20307825303858004361757354
:10450000653A204275734661756C74206F6E206148
:1045100020766563746F72207461626C65207265C9
:10452000616420647572696E672065786365707474
:10453000696F6E2070726F63657373696E672E00AA
:1045400043617573653A2025732E004D656D4D618D
:104550006E616765204661756C74204164647265A4
:1045600073733A20307825303858004275732046EE
:1045700061756C7420416464726573733A2030789D
:104580002530385800000000F0450000304600009B
:104590000000000089460000D24600001B470000D2
:1045A0000000000000000000644700007A4700009F
:1045B000E54700005048000091480000D248000044
:1045C0000000000000000000F04500001549000058
:1045D0006E490000F54900000000000000000000E6
:1045E0000000000000000000294A00005B4A0000B3
:1045F0005468652070726F636573736F72206861B1
:104600007320617474656D7074656420746F2065C7
:1046100078656375746520616E20756E6465666982
:104620006E656420696E737472756374696F6E0071
:104630005468652070726F636573736F7220617464
:1046400074656D707465642061206C6F6164206FA7
:10465000722073746F72652061742061206C6F63C7
:104660006174696F6E207468617420646F65732073
:104670006E6F74207065726D697420746865206F48
:104680007065726174696F6E00556E737461636BEF
:1046900020666F7220616E20657863657074696F43
:1046A0006E2072657475726E206861732063617527
:1046B000736564206F6E65206F72206D6F72652068
:1046C0006163636573732076696F6C6174696F6E83
:1046D0007300537461636B696E6720666F7220614B
:1046E0006E20657863657074696F6E20656E747294
:1046F000792068617320636175736564206F6E65EE
:10470000206F72206D6F7265206163636573732023
:1047100076696F6C6174696F6E730041204D656DD1
:104720004D616E616765206661756C74206F6363AF
:10473000757272656420647572696E6720666C6F4D
:104740006174696E672D706F696E74206C617A791F
:10475000207374617465207072657365727661741C
:10476000696F6E00496E737472756374696F6E2041
:10477000627573206572726F7200446174612062A9
:104780007573206572726F72202850432076616CB9
:10479000756520737461636B656420666F72207445
:1047A000686520657863657074696F6E20726574E2
:1047B00075726E20706F696E747320746F207468E8
:1047C0006520696E737472756374696F6E207468A6
:1047D0006174206361757365642074686520666127
:1047E000756C742900446174612062757320657270
:1047F000726F72202872657475726E2061646472C3
:1048000065737320696E2074686520737461636BCF
:10481000206672616D65206973206E6F7420726509
:104820006C6174656420746F2074686520696E73B0
:104830007472756374696F6E20746861742063614B
:104840007573656420746865206572726F722900E3
:10485000556E737461636B20666F7220616E2065A4
:104860007863657074696F6E2072657475726E20FE
:1048700068617320636175736564206F6E65206F76
:1048800072206D6F7265204275734661756C74732A
:1048900000537461636B696E6720666F7220616E8E
:1048A00020657863657074696F6E20656E747279C7
:1048B0002068617320636175736564206F6E652085
:1048C0006F72206D6F7265204275734661756C74EE
:1048D00073004120627573206661756C74206F638C
:1048E00063757272656420647572696E6720666CA8
:1048F0006F6174696E672D706F696E74206C617A78
:104900007920737461746520707265736572766165
:1049100074696F6E005468652070726F636573739D
:104920006F722068617320617474656D7074656462
:1049300020746F206578656375746520616E2069E9
:104940006E737472756374696F6E2074686174201D
:104950006D616B657320696C6C6567616C20757344
:1049600065206F6620746865204550535200546876
:10497000652070726F636573736F72206861732056
:10498000617474656D7074656420616E20696C6C0F
:104990006567616C206C6F6164206F6620455843C9
:1049A0005F52455455524E20746F207468652050F4
:1049B000432C206173206120726573756C74206FC5
:1049C0006620616E20696E76616C696420636F6E2B
:1049D000746578742C206F7220616E20696E766128
:1049E0006C6964204558435F52455455524E2076B9
:1049F000616C7565005468652070726F63657373D0
:104A00006F722068617320617474656D7074656481
:104A100020746F20616363657373206120636F701E
:104A2000726F636573736F72005468652070726F84
:104A3000636573736F7220686173206D61646520B4
:104A4000616E20756E616C69676E6564206D656D61
:104A50006F727920616363657373005468652070B9
:104A6000726F636573736F72206861732065786518
:104A7000637574656420616E2053444956206F72DB
:104A8000205544495620696E737472756374696F5A
:104A90006E207769746820612064697669736F722B
:104AA000206F66203000686172646661756C740006
:104AB0002E2E2F2E2E2F6E726635782D6261736525
:104AC0002F2F73646B2F6E7266355F73646B5F316B
:104AD000352E302E302F636F6D706F6E656E747370
:104AE0002F6C69627261726965732F62616C6C6FA1
:104AF000632F6E72665F62616C6C6F632E63002E53
:104B00002E2F2E2E2F6E726635782D626173652FD3
:104B10002F73646B2F6E7266355F73646B5F313514
:104B20002E302E302F65787465726E616C2F667032
:104B300072696E74662F6E72665F667072696E74EB
:104B4000662E6300303132333435363738394142DE
:104B5000434445462E2E2F2E2E2F6E726635782D0D
:104B6000626173652F2F73646B2F6E7266355F738E
:104B7000646B5F31352E302E302F65787465726E20
:104B8000616C2F667072696E74662F6E72665F66F6
:104B90007072696E74665F666F726D61742E630009
:104BA0000338FDD870470000590F0000C50F000002
:104BB000550F00002E2E2F2E2E2F6E726635782D5B
:104BC000626173652F2F73646B2F6E7266355F732E
:104BD000646B5F31352E302E302F636F6D706F6ECA
:104BE000656E74732F6C69627261726965732F658B
:104BF00078706572696D656E74616C5F6C6F672F3C
:104C00007372632F6E72665F6C6F675F6465666157
:104C1000756C745F6261636B656E64732E63002EE6
:104C20002E2F2E2E2F6E726635782D626173652FB2
:104C30002F73646B2F6E7266355F73646B5F3135F3
:104C40002E302E302F636F6D706F6E656E74732F04
:104C50006C69627261726965732F657870657269DB
:104C60006D656E74616C5F6C6F672F7372632F6E0E
:104C700072665F6C6F675F66726F6E74656E642ECE
:104C800063004261636B656E647320666C75736864
:104C90006564006170700062616C6C6F632E6C6F94
:104CA000675F6D656D706F6F6C000000DF4C00001A
:104CB000284D0000E74C0000304D0000384D00004A
:104CC000404D0000484D0000504D0000584D000080
:104CD000202530327800202020007C002563001B36
:104CE0005B306D002573001B5B313B33316D00255C
:104CF000734C6F67732064726F7070656420282531
:104D0000642925730D0A003C25733E2025733A2043
:104D1000000000000000000074470000604D00002B
:104D2000684D00006D4D00001B5B313B33306D0062
:104D30001B5B313B33326D001B5B313B33336D000A
:104D40001B5B313B33346D001B5B313B33356D00F6
:104D50001B5B313B33366D001B5B313B33376D00E2
:104D60007761726E696E6700696E666F0064656276
:104D70007567007077725F6D676D74002E2E2F2E31
:104D80002E2F6E726635782D626173652F2F7364D6
:104D90006B2F6E7266355F73646B5F31352E302E0C
:104DA000302F636F6D706F6E656E74732F6C6962F8
:104DB0007261726965732F6578706572696D656E71
:104DC00074616C5F6D656D6F626A2F6E72665F6D88
:104DD000656D6F626A2E6300556E6B6E6F776E2025
:104DE0006572726F7220636F6465000000000000DE
:104DF000044F000001000000104F000002000000FE
:104E00002E4F0000030000004F4F00000400000080
:104E1000624F000005000000734F00000600000014
:104E2000874F0000070000009F4F000008000000AF
:104E3000B74F000009000000CF4F00000A0000003B
:104E4000E84F00000B000000005000000C000000C4
:104E5000175000000D0000002B5000000E00000055
:104E60003D5000000F0000004C50000010000000FA
:104E7000605000001100000077500000800000002A
:104E80008650000081000000A75000008200000052
:104E9000C350000083000000DF50000084000000C9
:104EA000FD500000850000001E510000860000003B
:104EB00043510000900000005A5100009100000092
:104EC000785100009200000096510000008200001E
:104ED000AB51000001820000C951000002820000B5
:104EE000E551000000840000015200000184000030
:104EF00025520000028400004F520000038400008D
:104F0000745200004E52465F53554343455353007D
:104F10004E52465F4552524F525F5356435F48418F
:104F20004E444C45525F4D495353494E47004E52F3
:104F3000465F4552524F525F534F4654444556497F
:104F400043455F4E4F545F454E41424C4544004EF1
:104F500052465F4552524F525F494E5445524E4160
:104F60004C004E52465F4552524F525F4E4F5F4D7E
:104F7000454D004E52465F4552524F525F4E4F5480
:104F80005F464F554E44004E52465F4552524F5277
:104F90005F4E4F545F535550504F52544544004E4E
:104FA00052465F4552524F525F494E56414C49441A
:104FB0005F504152414D004E52465F4552524F5252
:104FC0005F494E56414C49445F5354415445004E4D
:104FD00052465F4552524F525F494E56414C4944EA
:104FE0005F4C454E475448004E52465F4552524F23
:104FF000525F494E56414C49445F464C414753002D
:105000004E52465F4552524F525F494E56414C49AF
:10501000445F44415441004E52465F4552524F5204
:105020005F444154415F53495A45004E52465F45E3
:1050300052524F525F54494D454F5554004E5246BF
:105040005F4552524F525F4E554C4C004E52465F98
:105050004552524F525F464F5242494444454E00DA
:105060004E52465F4552524F525F494E56414C494F
:10507000445F41444452004E52465F4552524F52A3
:105080005F42555359004E52465F4552524F525F50
:105090004D4F44554C455F4E4F545F494E4954491E
:1050A000414C495A4544004E52465F4552524F5278
:1050B0005F4D555445585F494E49545F4641494CF0
:1050C0004544004E52465F4552524F525F4D555433
:1050D00045585F4C4F434B5F4641494C4544004E59
:1050E00052465F4552524F525F4D555445585F5599
:1050F0004E4C4F434B5F4641494C4544004E52464F
:105100005F4552524F525F4D555445585F434F4E85
:10511000445F494E49545F4641494C4544004E5214
:10512000465F4552524F525F4D4F44554C455F418B
:105130004C52454144595F494E495449414C495AA2
:105140004544004E52465F4552524F525F53544FB2
:10515000524147455F46554C4C004E52465F4552C2
:10516000524F525F4150495F4E4F545F494D504C32
:10517000454D454E544544004E52465F4552524FB0
:10518000525F464541545552455F4E4F545F454E20
:1051900041424C4544004E52465F4552524F525F89
:1051A000494F5F50454E44494E47004E52465F4579
:1051B00052524F525F4452565F5457495F455252C4
:1051C0005F4F56455252554E004E52465F45525221
:1051D0004F525F4452565F5457495F4552525F41A8
:1051E0004E41434B004E52465F4552524F525F4430
:1051F00052565F5457495F4552525F444E41434BAC
:10520000004E52465F4552524F525F424C455F49F5
:105210005053505F52585F504B545F5452554E4359
:1052200041544544004E52465F4552524F525F42F0
:105230004C455F495053505F4348414E4E454C5F8B
:10524000414C52454144595F455849535453004ECF
:1052500052465F4552524F525F424C455F49505350
:10526000505F4C494E4B5F444953434F4E4E45436C
:10527000544544004E52465F4552524F525F424C95
:10528000455F495053505F504545525F52454A452E
:1052900043544544002E2E2F2E2E2F6E72663578E5
:1052A0002D626173652F2F73646B2F6E7266355F8D
:1052B00073646B5F31352E302E302F6D6F64756CDB
:1052C00065732F6E7266782F647269766572732FBC
:1052D0007372632F7072732F6E7266785F70727361
:1052E0002E6300505253005341414443002E2E2F51
:1052F0002E2E2F6E726635782D626173652F2F7397
:10530000646B2F6E7266355F73646B5F31352E3060
:105310002E302F6D6F64756C65732F6E7266782FEB
:10532000647269766572732F7372632F6E7266781A
:105330005F7370696D2E63002E2E2F2E2E2F6E72CE
:105340006635782D626173652F2F73646B2F6E72D3
:1053500066355F73646B5F31352E302E302F6D6F85
:1053600064756C65732F6E7266782F68616C2F6E32
:1053700072665F6770696F2E68005350494D002E4A
:105380002E2F2E2E2F6E726635782D626173652F4B
:105390002F73646B2F6E7266355F73646B5F31358C
:1053A0002E302E302F6D6F64756C65732F6E7266A4
:1053B000782F647269766572732F7372632F6E72C1
:1053C00066785F7477696D2E63005457494D0055B8
:1053D000415254005541525445005465726D696EF6
:1053E000616C0052545400534547474552004153A5
:1053F00053455254494F4E204641494C4544206143
:10540000742025733A2575004552524F5220257558
:10541000205B25735D2061742025733A25750D0A84
:1054200050432061743A2030782530387800456E3A
:1054300064206F66206572726F72207265706F7281
:105440007400554E4B4E4F574E204641554C5420FC
:105450006174203078253038580000001800002092
:1054600043000000504F5349580000000000000066
:105470002E0000000A000000002020202020202014
:1054800020202828282828202020202020202020F4
:105490002020202020202020208810101010101004
:1054A0001010101010101010100404040404040450
:1054B00004040410101010101010414141414141EA
:1054C00001010101010101010101010101010101CC
:1054D00001010101101010101010424242424242DC
:1054E000020202020202020202020202020202029C
:1054F0000202020210101010200000000000000044
:10550000000000000000000000000000000000009B
:10551000000000000000000000000000000000008B
:10552000000000000000000000000000000000007B
:10553000000000000000000000000000000000006B
:10554000000000000000000000000000000000005B
:10555000000000000000000000000000000000004B
:10556000000000000000000000000000000000003B
:10557000000000000000000000000000000000002B
:10558000E352000000000000E752000000000000AD
:105590007A53000000000000CA5300000000000021
:1055A000CF53000000000000D453000000000000B2
:1055B000934C000000000303974C00000000000320
:1055C000A64A000000000303734D00000000000025
:1055D000800B0020480C0020500C0020880B00207D
:0855E000EC0900201800000096
:0855E80058ACFF7F0100000038
:1055F00000000050A84B0000000000000000000068
:105600000090D003180000200000000004030020D8
:105610006C030020D4030020000000000000000004
:10562000000000000000000000000000000000007A
:10563000000000000000000000000000000000006A
:10564000000000000000000000000000000000005A
:10565000000000000000000000000000000000004A
:10566000000000000000000000000000000000003A
:10567000000000000000000000000000000000002A
:10568000000000000000000000000000000000001A
:10569000000000000000000000000000000000000A
:1056A00000000000000000000000000000000000FA
:1056B00001000000000000000E33CDAB34126DE697
:1056C000ECDE05000B000000000000000000000000
:1056D00000000000000000000000000000000000CA
:1056E00000000000000000000000000000000000BA
:1056F00000000000000000000000000000000000AA
:105700000000000000000000000000000000000099
:105A30004300000000000000000000000000000023
:105A40000000000000000000000000000000000056
:105A50004300000000000000000000000000000003
:105A60000000000000000000000000000000000036
:105A700043000000000000000000000000000000E3
:105A80000000000000000000000000000000000016
:105A900043000000000000000000000000000000C3
:105AA00000000000000000000000000000000000F6
:105AB00043000000000000000000000000000000A3
:105AC00000000000000000000000000000000000D6
:105AD0004300000000000000000000000000000083
:105AE00000000000000000000000000000000000B6
:105AF0004300000000000000000000000000000063
:105B00000000000000000000000000000000000095
:105B10009D2A0000D52400000000000078540000F9
:105B2000705400006C5400006C5400006C54000071
:105B30006C5400006C5400006C5400006C54000065
:105B40006C5400006C540000FFFFFFFFFFFFFFFFDD
:105B5000FFFFFFFFFFFF00000100415343494900E1
:105B60000000000000000000000000000000000035
:105B700000000000000000000000415343494900BC
:105B80000000000000000000000000000000000015
:105B9000000000000000000000000000E4130020EE
:105BA0000000000000000000B0050020B00500204B
:105BB000B8050020B8050020C0050020C005002061
:105BC000C8050020C8050020D0050020D005002011
:105BD000D8050020D8050020E0050020E0050020C1
:105BE000E8050020E8050020F0050020F005002071
:105BF000F8050020F805002000060020000600201F
:105C000008060020080600201006002010060020CC
:105C1000180600201806002020060020200600207C
:105C2000280600202806002030060020300600202C
:105C300038060020380600204006002040060020DC
:105C4000480600204806002050060020500600208C
:105C5000580600205806002060060020600600203C
:105C600068060020680600207006002070060020EC
:105C7000780600207806002080060020800600209C
:105C8000880600208806002090060020900600204C
:105C90009806002098060020A0060020A0060020FC
:105CA000A8060020A8060020B0060020B0060020AC
:105CB000B8060020B8060020C0060020C00600205C
:105CC000C8060020C8060020D0060020D00600200C
:105CD000D8060020D8060020E0060020E0060020BC
:105CE000E8060020E8060020F0060020F00600206C
:105CF000F8060020F806002000070020000700201A
:105D000008070020080700201007002010070020C7
:105D10001807002018070020200700202007002077
:105D20002807002028070020300700203007002027
:105D300038070020380700204007002040070020D7
:105D40004807002048070020500700205007002087
:105D50005807002058070020600700206007002037
:105D600068070020680700207007002070070020E7
:105D70007807002078070020800700208007002097
:105D80008807002088070020900700209007002047
:105D90009807002098070020A0070020A0070020F7
:105DA000A8070020A8070020B0070020B0070020A7
:105DB000B8070020B8070020C0070020C007002057
:105DC000C8070020C8070020D0070020D007002007
:105DD000D8070020D8070020E0070020E0070020B7
:105DE000E8070020E8070020F0070020F007002067
:105DF000F8070020F8070020000800200008002015
