:1000000000000120AD280000D52800007D09000077
:10001000D9280000DB280000DD28000000000000D7
:10002000000000000000000000000000DF280000C9
:10003000E128000000000000E3280000E52800009F
:10004000E7280000E728000005200000C922000082
:10005000E9210000E7280000791E00003D20000093
:1000600099220000A9220000E7280000E7280000EC
:10007000E7280000E7280000E7280000E728000044
:10008000E7280000AD050000E7280000E728000091
:1000900049060000E7280000E7280000E7280000E4
:1000A000E7280000E7280000E7280000E728000014
:1000B000E7280000E7280000000000000000000022
:1000C000E7280000E7280000E7280000E7280000F4
:1000D000E7280000E7280000E728000000000000F3
:1000E0000000000000000000000000000000000010
:1000F0000000000000000000000000000000000000
:1001000000000000000000000000000000000000EF
:1001100000000000000000000000000000000000DF
:1001200000000000000000000000000000000000CF
:1001300000000000000000000000000000000000BF
:1001400000000000000000000000000000000000AF
:10015000000000000000000000000000000000009F
:10016000000000000000000000000000000000008F
:10017000000000000000000000000000000000007F
:10018000000000000000000000000000000000006F
:10019000000000000000000000000000000000005F
:1001A000000000000000000000000000000000004F
:1001B000000000000000000000000000000000003F
:1001C000000000000000000000000000000000002F
:1001D000000000000000000000000000000000001F
:1001E000000000000000000000000000000000000F
:1001F00000000000000000000000000000000000FF
:1002000010B5054C237833B9044B13B10448AFF350
:1002100000800123237010BD000A002000000000B0
:10022000B49C000008B5034B1BB103490348AFF36E
:10023000008008BD00000000040A0020B49C0000FB
:10024000154B002B08BF134B9D46A3F5803A0021A8
:100250008B460F461348144A121A02F045FC0F4B06
:10026000002B00D098470E4B002B00D09847002061
:10027000002104000D000D48002802D00C4804F0B5
:1002800001FD02F041FB2000290000F053F802F0CC
:100290002BFB00BF00000800000001200000000050
:1002A00000000000000A002068140020854C0000B7
:1002B000555E00000A4B1B6810B5D3F8142521B118
:1002C00081401143C3F8141510BD0124844000F58A
:1002D000E07022EA0402C3F8142543F82010F3E783
:1002E00000000020054B1A68012303FA00F0D2F841
:1002F00004350343C2F80435704700BF00000020F6
:10030000054B1A68012303FA00F0D2F8043523EAFA
:100310000003C2F80435704700000020044B1B683E
:10032000D3F8103523FA00F000F00100704700BF49
:100330000000002010B54FF40041002001F018F833
:1003400018B11E4A1C2100F01CF900F033FF1C48B4
:100350001C4C02F075FC00211620FFF7ABFF0121B9
:100360001720FFF7A7FF01211820FFF7A3FF0121A6
:100370001920FFF79FFF00211C20FFF79BFF17208C
:10038000FFF7B0FF44F001041C20FFF7C7FF68B17E
:100390001920FFF7A7FF1620FFF7C0FF50B1182064
:1003A000FFF7AEFF4FF47A40A047EDE71920FFF7C3
:1003B000A7FFF0E71820FFF795FFF3E76689000035
:1003C0006D8900006089000038B5054D044645F090
:1003D00001054FF47A40A847013CFAD138BD00BF6F
:1003E000008A00007FB506460D46144672B601F03D
:1003F000E5F901F025F80028FBD1374802F020FC90
:1004000044F201039E4254D044F202039E425ED164
:1004100022886168314802F0B1FB01F039FC08B96B
:1004200001F002FC0023ADF80C308DF80E3003A96A
:10043000012319208DF80D3001F034FC03A9182098
:1004400001F030FC03A9172001F02CFC192001F069
:10045000E5FC182001F0E2FC172001F0DFFC4FF46E
:10046000FA70FFF7B1FF192001F0AAFC182001F083
:10047000A7FC172001F0A4FC3220FFF7A5FF1920EC
:1004800001F0CCFC182001F0C9FC172001F0C6FCDB
:100490004FF4FA70FFF798FF192001F091FC182033
:1004A00001F08EFC172001F08BFCFA20FFF78CFF87
:1004B000CCE7A668304601F073FB236801950093F2
:1004C000024663680648314602F058FBA5E7294614
:1004D000044802F053FBA0E77E89000096890000E3
:1004E000B1890000DB89000007B501F0D1FB08B934
:1004F00001F09AFB0023ADF804308DF8063001A915
:10050000012319208DF8053001F0CCFB01A918203A
:1005100001F0C8FB01A9172001F0C4FB192001F06C
:100520007DFC182001F07AFC172001F077FC4FF4D5
:10053000FA70FFF749FF192001F042FC182001F082
:100540003FFC172001F03CFC3220FFF73DFF192053
:1005500001F064FC182001F061FC172001F05EFC42
:100560004FF4FA70FFF730FF192001F029FC182032
:1005700001F026FC172001F023FCFA20FFF724FFEE
:10058000CCE700B583B002900091019244F20100E3
:1005900071466A46FFF726FF03B000BD024B4FF4D9
:1005A0003C6043F001031847108A0000F8B51F4B68
:1005B0001F491B680025C1F84051C1F84451C1F8DA
:1005C0004851C1F84C51C1F80051C1F804514BB326
:1005D000D1F8044517490968641A24F07F442F466E
:1005E0001A68A24209D8A41A15441A7CDE691AB105
:1005F0001F74D3E905209047AEB90F4B0F4A197805
:1006000013788B4205D10133DBB2022B08BF0023E4
:10061000137012780A4B43F822500A4B4FF48012A1
:10062000C3F80021F8BD3346DAE700BF3C0B0020D9
:1006300000100140380B0020340B0020350B002047
:100640002C0B002000E100E02DE9F74F9C4A9D496A
:10065000137809789C4D99423CD00133DBB2022BD0
:1006600008BF0023137099491278994B0F6853F80B
:1006700022003B1823F07F4300220B602B681646B4
:100680001446944613B942B12B6006E019688142C2
:100690000ED902B12B60091A19604FF001082B68BE
:1006A000DFF834A200930027BEB9DFF834B260E06F
:1006B000401A0C44D968C3F800C0D3F81CE031B12B
:1006C0003A1922F07F42C3E90121DE611E46012270
:1006D0007346D7E70026B046E1E73446F6697B4A21
:1006E00063681268DFF8FCC1A068991A21F07F41A5
:1006F000614500F2A58001442160012222742A682C
:100700000023C4E90133E361002A40F0A2802C6099
:10071000CAE75A1C9BF80210D2B291428BF8002013
:1007200004BF00228BF80020182202FB03B32A68C2
:1007300019799C68022974D003297ED0012918D127
:10074000217CB1B9DA6862601A69A2605A699B6952
:10075000A361604BE2601B78002BC0D06160BEE7F4
:100760009C4200F090809946DB69002BF8D1002371
:1007700023749BF800309BF801209A42C9D12B6862
:100780002FB9009A934202D1B8F1000F43D0002B49
:1007900041D0D3F800A0504D4C4BD5F804751C68DF
:1007A000DFF844813E1B98F8003026F07F46033680
:1007B0009BB94FF48033C5F84433C5F80433474B35
:1007C0004FF400324FF00109C3F880211A60C5F8D8
:1007D0000090FFF7E3FE88F80090B2452CBF544428
:1007E000A41924F07F44C5F84045D5F80435DB1B37
:1007F00023F07F43E41B033324F07F44A3420AD950
:10080000D5F80435C5F84035FFF7C8FE334B4FF433
:100810000032C3F800212F4B00221A7003B0BDE84C
:10082000F08F13469146A0E71174D2690123002A84
:10083000FAD1002B9DD02A609BE700231946F6E7EA
:10084000D31A23F07F43834234BFC31A00232360AB
:1008500053E721681368994213D8591A1160E2616D
:1008600055E7091AD8691A4638B10346186888420C
:10087000F7D3401A1860184613462160E061DC6126
:1008800012E71346F2E74C450DD1D3692B6053B9FB
:100890000E4801920121CAF8081003600D4B19702F
:1008A000FFF77CFE019AE1692368C9F81C1011B1B9
:1008B000086803440B602B689A4218BF012756E76B
:1008C000340B0020350B00203C0B0020380B00209F
:1008D0002C0B0020280B00200010014000E100E05C
:1008E0001C0A0020FEFF7F00290B002072B6024A7E
:1008F0001368013313607047400B0020034A1368EC
:10090000013B136003B962B6704700BF400B002083
:10091000EFF30583C3F308032BB9EFF31480C0434F
:1009200000F00100704701207047000008B5FFF794
:10093000EFFF012803D00449432000F0BFF8BDE8D1
:100940000840FFF7D3BF00BF168A000008B5FFF7C5
:10095000DFFF012803D00449512000F0AFF8BDE8C3
:100960000840FFF7CBBF00BF168A0000024B1B6890
:100970000021986802F06CB9140000201EF0040FEA
:100980001CBFEFF309800AE0EFF308800549064A2F
:10099000884201D8904202D88D464FF00000034BA8
:1009A000184700000000012000E00020B10900000D
:1009B0002DE9F347044600F001FF00F041FD002857
:1009C000FBD1334D334E2888A2693349B76A0004FE
:1009D00040F0010000F0ACFE2888E36801930004B9
:1009E000A36800932D49D4E9002340F0010000F0F2
:1009F000B5FE2888E36900930004D4E9042340F09D
:100A00000100274900F09EFEF36A980706D5288862
:100A10002449000440F0010000F086FEDFF89490C5
:100A2000DFF894A000264FF0010808FA06F33B42D5
:100A300009D059F8262032B128880004514640F0E8
:100A4000010000F075FE01361A2EEED1390608D5E8
:100A50002888104B14495A6B000440F0010000F044
:100A600067FE3A0408D528880A4B10499A6B00049F
:100A700040F0010000F05CFE0D4B1B68DB0700D569
:100A800000BE2046FFF730FD02B0BDE8F08700BF92
:100A9000F809002000ED00E06A8A00007F8A00006B
:100AA000B48A0000DC8A00002B8B00004B8B000016
:100AB000F0ED00E0688B0000208B000007B5ADF87A
:100AC000000001916A46002144F20200FFF78AFC0F
:100AD00003B05DF804FB50E8002F0B4640E8003CF3
:100AE0009CF0000FF7D11046704750E8003F43EAF2
:100AF000010240E8002C9CF0000FF6D11046704730
:100B000050E8002F02EA010340E8003C9CF0000F8F
:100B1000F6D11046704750E8003F03EB010240E871
:100B2000002C9CF0000FF6D11046704750E8003FB3
:100B3000A3EB010240E8002C9CF0000FF6D1104618
:100B400070470121FFF7D1BF0021FFF7D9BF000097
:100B500010B50446002834D003681BB91A49FF2099
:100B6000FFF7ACFF636823B917494FF48070FFF7B4
:100B7000A5FFA36823B9144940F20110FFF79EFFB7
:100B8000E36823B910494FF48170FFF797FFA38AF8
:100B900023B90D4940F20310FFF790FFD4E9012378
:100BA00021689B1ADBB20A60013BDBB2FF2B226893
:100BB00002D10020107110BD1168481C10600B702C
:100BC000F2E70E20F7E700BF9090000038B504462A
:100BD00020B911494FF49270FFF770FF0020FFF722
:100BE000A5FE226863681168994213D9481E1060F7
:100BF00011F8015CE368A18A01FB0535A36811794E
:100C00001B1ADBB2994200D213710020FFF79EFE3F
:100C1000284638BD0025F8E79090000038B50C460E
:100C2000054620B90E4940F24710FFF747FF24B9A7
:100C30000B494FF4A470FFF741FF0020FFF776FE49
:100C40002A681368591C1160EA68A41AAA8AB4FBBE
:100C5000F2F41C700020BDE83840FFF777BE00BFFB
:100C60009090000010B5044618B906493120FFF7EE
:100C700025FFA2682AB1636921682069984700238B
:100C8000A36010BDDF9000000EB433B5059D04468F
:100C900018B912494220FFF711FF63691BB90F49C8
:100CA0004320FFF70BFF23681BB90C494420FFF7D3
:100CB00005FF63681BB909494520FFF7FFFE3DB1F9
:100CC00002AA06AB42F8043D2946204600F06EF821
:100CD00002B0BDE8304003B0704700BFDF900000B5
:100CE000826830B40468551C8560A154D0E9013293
:100CF0009A4202D330BCFFF7B5BF30BC704700004A
:100D00002DE9F84F9946DDE90A43174682468846A1
:100D10000A460126BA420FD24E4538BF4E4613F05E
:100D2000010B01D164B900240125B9F1010F1AD9D1
:100D300009F1FF397D43F8E7B2FBF7F20136E9E745
:100D40009B070ED5B9F1000F0CBF30252025A64218
:100D5000EAD2013C29465046FFF7C2FF002CF6D1EB
:100D6000E1E72025F3E7B8FBF5F39F42E2D9DFF88E
:100D70003890B8FBF5F3504619F8031005FB1388BB
:100D8000FFF7AEFFB5FBF7F5002DF2D1BBF1000F79
:100D900002D00CB1A64201D3BDE8F88F2021504605
:100DA000013CFFF79DFFF4E7249100002DE9F74F88
:100DB0000E469046054620B9AC494FF49F70FFF7A8
:100DC0007DFE6B6923B9A9494FF4A070FFF776FE49
:100DD0002B6823B9A54940F24110FFF76FFE6B68FD
:100DE00023B9A2494FF4A170FFF768FE002E00F06E
:100DF000398116F8011B002958D0252940F0D180EF
:100E0000002702E047F001071646324612F8013B80
:100E10002D2BF7D0302B04D02B2B05D147F0040716
:100E2000F2E747F00207EFE700242A2B06F1010260
:100E30001BD1D8F80030191D1B68C8F800101C44DD
:100E4000164633782E2B1CD101364FF0000A31465E
:100E500011F8012BA2F13000092814D80A2303FB52
:100E60000A23A3F1300A0E46F1E712F8013CA3F180
:100E700030010929E5D80A2101FB0434303C16462B
:100E8000D3E74FF0000A324612F8011B01F0FB00D5
:100E900068281646F8D0692916D054D8582970D039
:100EA0000ED825297DD03378002BA2D12B7B002BA7
:100EB00000F0D880284603B0BDE8F04FFFF7D2BE5F
:100EC000632968D06429EED1D8F80020D2F80090C8
:100ED000111D89EAE972C8F80010A2EBE9724FF01F
:100EE000010B092A61DCD34538BFD3462CB1B9F1D7
:100EF000000F01DB790700D5013CBA0702D5BAF132
:100F0000000F04D0FB0702D4002C54D10024B9F107
:100F1000000F58DAC9F100092D212846FFF7E0FE3D
:100F200007F00302022A05D1BAF1000F02D1002C0A
:100F30004DD10024CDE9004753460A2249462846B0
:100F4000FFF7DEFEAFE7732954D016D87029AAD177
:100F5000D8F800301A1DC8F80020302128461C6837
:100F6000FFF7BEFE78212846FFF7BAFE00220823CD
:100F7000CDE9003221461022E1E775292FD07829EA
:100F800091D1D8F800100A1DC8F80020CDE900471B
:100F9000534610222CE0D8F800301A1D1978C8F8F2
:100FA00000202846FFF79CFE7DE70A230BF1010B8A
:100FB00092FBF3F295E7A345A9D220212846013CF4
:100FC000FFF78EFEA0E77807AAD52B21A5E7A3455A
:100FD000B0D230212846013CFFF782FEA7E7D8F8BF
:100FE0000010CDE900470A1DC8F8002053460A2228
:100FF0000968A4E7D8F800301A1DC8F80020F907DE
:10100000D3F8009012D54F46A7EB090B17F8011B38
:1010100041B95C457FF647AF20212846013CFFF7E8
:101020005FFEF6E72846FFF75BFEEDE7B9F1000F3C
:1010300016D0484601F044FF0746BC420AD809F1E1
:10104000FF3919F8011F00293FF42DAF2846FFF79B
:1010500047FEF6E720212846013CFFF741FEECE77A
:101060004F46EAE703B0BDE8F08F00BF34910000BF
:101070007047000007B5044B0093044A402300F07A
:1010800032F803B05DF804FB91100000450B00201E
:101090002DE9F84389461446B2B10F4B0F4E032594
:1010A000002743F00108224609EB0701002001F068
:1010B0003BFA0744241A48B933782BB14FF47A40ED
:1010C000C047013D02D13570BDE8F883012333707C
:1010D000002CE8D1F8E700BF80910000440B00200D
:1010E000704701F06FBAF0B595B01C461646084639
:1010F0000D4600F016FD1A9B0D93CDE908640024FF
:101100002346082205A928460A948DF82C400C9401
:1011100000F021FD079B0293BDF81830ADF80C30AC
:10112000BDF81A30ADF80E309DF814308DF811402E
:1011300003F00302012A1DD1BDF81440059EC3F33C
:10114000C203C4F383148DF81030A20008230EA943
:10115000284600F000FDC6F3952608AB0093224612
:1011600002AB0EA9304600F097FB284600F0DDFCEC
:1011700015B0F0BD022AF8D1BDF81640C3F3C20382
:10118000A4098DF810300827082C264628BF082609
:101190003B4632460EA9284600F0DDFCA41B08ABF6
:1011A00002AA31460EA8374400F0DAFB002CEBD13E
:1011B000DBE7000008B5FFF794FF0421064800F0C4
:1011C000DBFA002803DA05494120FFF777FC024BE0
:1011D00001225A7208BD00BF040000209491000053
:1011E00008B5037813F0030F03F0040202D012B91C
:1011F000104608BDDAB103F00303012B07D0022B20
:101200000ED00E494FF4A470FFF758FC06E00A68B0
:1012100000880232C0F3831002440A600120E8E72C
:101220000B684288023303EB92130B60F6E70B68FE
:101230004288013303EB92130288F4E7FF91000028
:101240002DE9F04F484C87B00D460646871C00201C
:101250000092FFF76BFB23682B60D4E90123134452
:10126000226801339B1A04F21C4804F5836B04F2D4
:101270001449BB4219D3009A0023002A6CD00122E2
:1012800062F3010343F0040366F389132168A26843
:101290000A4003320F44002044F822302760FFF751
:1012A00055FB012007B0BDE8F08F01214046FFF754
:1012B00032FC5846FFF745FC0DF1180A4846FFF787
:1012C00040FC60684AF8100DA5682840033004EB24
:1012D00080005146FFF784FF02460298002AF4D1AD
:1012E00005EA000304EB8303811CDB6803930130F0
:1012F000054004EB850503F00303012B0291ED6823
:1013000023D0022B08D0194901924FF4C270FFF785
:10131000D5FB019A154607E0BDF80E309B09033353
:101320002D0C01EB930302934846FFF70DFC08B127
:10133000029B636029464046FFF7EDFBD4E9012399
:101340001344226801339B1A93E7BDF80C30C3F3B2
:1013500083132D0C0B44E6E7022262F3010343F0F2
:10136000040366F39F5391E7580C0020FF9100009F
:1013700008B50F4B0F48FF229A600022C3F81824CB
:10138000C3E90022C3F81424012283F8202400F0CA
:1013900081FB38B9084A094B09499B1ADB08024608
:1013A0009A4200D108BD21F822200132F8E700BF9F
:1013B000580C0020189D0000B89C0000189D0000EB
:1013C000D009002030B50B4C79B10B4A0B49121BE8
:1013D000D20800239A4201D1002030BD01EB8305E1
:1013E0006D88854202D00133F4E7034654F8330098
:1013F000F3E700BFB89C0000189D0000D009002052
:10140000094B013903EBC000032909D8DFE801F0DB
:101410000A0204060420704700797047407970473B
:101420000020704702207047B89C0000034BD3E9AE
:101430000030C31A58425841704700BF580C002072
:101440002DE9F04385B0FFF7F1FF0746002840F093
:10145000F2807A4DC5F81804BFF34F8F6868AC6806
:101460000DF1100848F8100D2040033005EB800006
:101470004146FFF7B5FE009B064600285FD104EA0F
:101480000302991C013305EB8202234005EB830321
:10149000D268DB68029302F00303022B01920091F1
:1014A00062D1BDF8063066484FEA9318B8F1500F84
:1014B000C14628BF4FF0500969F38F1309F10801A5
:1014C000ADF8063000F0FEFA0746002800F0A180D3
:1014D00000F027FB334601A90822384600F034FB10
:1014E000009924EA01060136B600B14535D95FFA04
:1014F00089F97EB3F6B2A9EB0609214003315FFA00
:1015000089F4B1464F4E05EB810108234A4638461F
:1015100000F01AFB36B109F108032246314638467D
:1015200000F012FB009B08F1030803EB9803009303
:10153000D5F81834002B4AD1D5F8104458E02A6861
:101540009A4204D86A60384605B0BDE8F08304EAE0
:1015500003008AE73B493446D7E72140033108239B
:101560004A4605EB8101DAE7012B52D1BDF8043080
:101570003348C3F38311062928BF062161F3891379
:1015800002318900ADF8043000F09CFA07460028CB
:101590003FD000F0C6FA3346082201A9384600F0D1
:1015A000D3FABDF80420C2F38312B31C96424FEA6B
:1015B0008303BDD200994A1C21400331009205EB00
:1015C00081010422384600F0BFFA0136E9E73846C7
:1015D00000F0ABFAFFF72AFF80F00100C7B2B2E7D4
:1015E000637A23B1236839461B68204698476468AC
:1015F000002CF5D1384600F098FA2046FFF796F90E
:10160000D5F818340BB9009B6B600020FFF79EF9EA
:10161000E0E7D5F8104444B90B4B0C491888000496
:1016200040F0020000F080F8D4E7236820469B6871
:1016300098476468EFE7002785E700BF580C002053
:10164000189D0000640C0020F00900206292000048
:101650002DE9F74F2F4C80460F46914601A90122F4
:1016600018469B46D4F808A0FFF7EAFD00283DD0B5
:10167000019D0026A91C5E4506EB010240D1002118
:101680002548FFF728FA80F3100B244B244A4FEA31
:1016900018499B1AB9EBD30F04D3224940F2A91081
:1016A000FFF70CFA6B1C03EA0A0304EB830349EA15
:1016B0000B42DA6005EA0A030333012114F8232000
:1016C00068F3C50204F8232034F8232066F3891256
:1016D00024F8232054F8232067F39F2244F8232082
:1016E00061F301026FF3820204F8232094F820349E
:1016F0001BB1FFF7A5FE0028FBD103B0BDE8F08FBA
:101700000AEA020204EB820259F82630D36001365D
:10171000B1E700BF580C002074100020189D000095
:10172000B89C0000FF91000000231A46FFF790BF0D
:1017300013B502AC012344F8042D2246FFF788FFBD
:1017400002B010BD1FB5CDE90123069B039301AA8A
:101750000323FFF77DFF05B05DF804FB1FB5CDE95E
:101760000023069B0293079B03936A460423FFF71B
:101770006FFF05B05DF804FB0F4A30B5D2F8104496
:101780000023214641B90372D2F810444CB9C2F883
:1017900010044160184630BD0D7A9D4205D049685D
:1017A000F0E7626842606060F4E701330A2BE8D139
:1017B0004FF0FF33EEE700BF580C0020084A38B561
:1017C0000123D2F8104482F820341D4604B938BDF4
:1017D0002368657220465B6898476468F6E700BF37
:1017E000580C0020037A052B10B50C460FD0437A15
:1017F00023B1084A08492046FFF746FA0749204620
:10180000FFF742FA2046BDE81040FFF72BBA002A46
:10181000F8D0F3E7BF920000C4920000E492000009
:10182000C38873B504460D4633B1144A0092144977
:10183000144A2846FFF728FA217A05291CD0637A32
:101840004BB1A088FFF7DCFD0F4B104953F8202067
:101850002846FFF719FA227A0D4BA08853F8226028
:101860000021FFF7AFFD0B4903463246284602B080
:10187000BDE87040FFF708BA02B070BDBF9200002B
:10188000CF920000C79200008C920000C49200002A
:10189000F4920000E79200002DE9F04385B01F4666
:1018A0000C9D002306460C46904695F80C902B7331
:1018B00029463846FFF7B4FFB8F1060F09D8DFE82C
:1018C00008F00412181F2833400031462846FFF75D
:1018D000DBF9002229463846FFF784FF85F80C9093
:1018E00005B0BDE8F083226831462846FFF7CCF901
:1018F000EFE7D4E9002331462846FFF7C5F9E8E7CA
:10190000A36800933146D4E900232846FFF7BCF9C9
:10191000DFE7E3680193A36800933146D4E900232D
:101920002846FFF7B1F9D4E723690293E3680193EE
:10193000A36800933146D4E900232846FFF7A4F9B1
:10194000C7E76369039323690293E3680193A3687C
:1019500000933146D4E900232846FFF795F9B8E70C
:1019600008292DE9F84F80460E4617461C4638D800
:10197000002593F80C901D7319461046FFF750FF91
:10198000DFF880A0DFF880B0AE422CD918F805202F
:1019900059462046FFF778F90135082DF4D117494B
:1019A000DFF868B02046FFF76FF90025AE421FD977
:1019B00018F805A000F0DAFF50445946437813F0B8
:1019C000970F14BF52462E222046FFF75DF90135CE
:1019D000082DEBD1012221463846FFF703FF84F89A
:1019E0000C90BDE8F88F51462046FFF74DF9D3E73C
:1019F00003492046FFF748F9E9E700BFBA92000023
:101A0000B8920000B6920000B0920000BC920000B4
:101A10002DE9F84FB0F806A09DF82890174603323C
:101A20001C1D13444279B4FBFAF55344B3FBFAF39B
:101A3000DBB29A42064688460AFB154403D2144993
:101A4000BA20FFF73BF83DB9AAEB040BBB4528BF12
:101A5000BB4627B9BDE8F88F3668013DF3E704348B
:101A600008EB050034445A46B9F1000F0DD0214669
:101A7000A7EB0B0700F09EFFBA455D443668D346DE
:101A80004FF0000428BFBB46E3E701462046EFE7DE
:101A90005C930000FFF75CB8F8B546790146721E0A
:101AA0000546002393422D6803D30024A64202D8A2
:101AB000F8BD0133F6E70F682846FFF7AFF80134A9
:101AC0003946F3E72DE9F843868ACD1C0746FFF730
:101AD0007DF8043E35440446B5FBF6F5F0B14FF40D
:101AE0008073EDB28380C680013D076081464FF070
:101AF0000008A84512D23846FFF768F8064648B1F4
:101B000063790133637108F10108C9F800000760C7
:101B10008146EEE72046FFF7BFFF34462046BDE88A
:101B2000F88301210430FEF7F6BF10B50121044609
:101B30000430FEF7FBFF10F0FF0F04D12046BDE894
:101B40001040FFF7A9BF10BD13B500240094FFF7A4
:101B50005FFF02B010BD13B501240094FFF758FFDA
:101B600002B010BD0D4930B5A1F58C72022591422D
:101B700001D800200EE08B1ADB1093FBF5F302EB8B
:101B8000C30452F83330834205D802D204F108026C
:101B9000EDE7606830BD2146E9E700BFE49400004E
:101BA00008B5FFF7DFFF024B002808BF184608BD45
:101BB000B893000000F1804000F5C040002382B0DF
:101BC000036003680193019B02B07047054B4FF01F
:101BD000FF32072843F8202084BF1B1883F84820D1
:101BE000704700BF7C100020024940F2C710FEF78A
:101BF00065BF00BF759800001F2838B504460D4624
:101C000001D9FFF7F1FFA00000F1A040D0F80037A4
:101C100023F44033C0F80037D0F8003743EA0543D7
:101C2000C0F8003738BD0000164991F8583010B59B
:101C30002BBBFF20CA180133202B82F83000F9D1CA
:101C40000024E0B20134FFF7C1FF0C2CF9D10E4B98
:101C50000022E0204A6583F806034020C3F8800193
:101C600018604FF4BE70FFF7A5FF084B4FF000401F
:101C7000C3F80403012381F85830104610BD082032
:101C8000FCE700BF7C10002000E100E000600040A5
:101C9000034B93F85800003018BF0120704700BF75
:101CA0007C1000201F2870B504460D4604D9414918
:101CB00040F22D10FEF702FF3F4E96F85830012BF0
:101CC00004D03C494FF49770FEF7F8FE25B9394926
:101CD00040F22F10FEF7F2FE331993F93020013253
:101CE00065D1AA78002A54D0002356F82310013178
:101CF0004FEA830248D1311902F1804202F5C04215
:101D000081F830300021D2F8100546F823102B78E6
:101D1000697820F498101B04090520F4F85001F4A8
:101D2000801103F44033C2F810050B432102D2F8AE
:101D3000100501F4F8510B430343C2F810356B78DA
:101D4000012B4FF0010528D11F2C01D9FFF74CFFC3
:101D50004FF0A043A540C3F808551F2C01D9FFF749
:101D600043FF04F5E0724FF0A043032143F8221033
:101D7000E2081249012304F0070403FA04F48B5C1F
:101D80001C438C54002003E00133082BADD1042008
:101D900070BDFE2283F83020D1E71F2C01D9FFF758
:101DA00023FF4FF0A043A540C3F80C55D5E708200A
:101DB000EEE700BFB79800007C100020D010002094
:101DC0001F2838B5054604D9124940F27910FEF7AC
:101DD00075FE114C621992F93020013204D10D497F
:101DE0004FF4BD70FEF76AFE631993F83030072B8D
:101DF00004D8084940F27B10FEF760FE1F2D01D980
:101E0000FFF7F2FE012303FA05F54FF0A043C3F8F4
:101E1000085538BDB79800007C1000201F2838B541
:101E2000054604D9124940F28310FEF747FE114CD3
:101E3000621992F93020013204D10D494FF4C27079
:101E4000FEF73CFE631993F83030072B04D808499D
:101E500040F28510FEF732FE1F2D01D9FFF7C4FEB8
:101E6000012303FA05F54FF0A043C3F80C5538BD24
:101E7000B79800007C1000202DE9F04F87B00024B7
:101E80005B4A5C4E5C4D039401211368A2F5C0408F
:101E9000012B80B206D1D6F804330B4202D0FFF7F3
:101EA00089FE0C430432AA424FEA4101EDD1534B63
:101EB0001B68012B0AD14FF4BE70FFF77BFE4FF079
:101EC000A04344F00044D3F81035039314F0FF0FFF
:101ED0001AD04B4F00250126344210D0AB0003F13D
:101EE000804303F5C043D3F81005D3F8101557F815
:101EF0002530C0F30420C1F3014103B198470135F7
:101F0000082D4FEA4606E7D1002C6EDA00224FF08A
:101F1000FF33CDE904233A4F4FF0000A56464FF005
:101F2000A04907EB0A0393F95040631C46D0E4B282
:101F3000012224F0C00504F0070B02FA0BFBEB08AA
:101F400006AAD11811F8042C12EA0B0F36D07A1910
:101F5000A40992F9302057F82280B8F1000F0AD175
:101F6000032C2BD10DF1100C1CF8030040EA0B00E0
:101F70000CF8030001E0032CF4D01F2D03D90191CC
:101F8000FFF732FE019911F80C1C05F5E07311EA18
:101F90000B0F59F82330C3F3014320D0022B0DD18E
:101FA000032C05D121462846FFF726FE0136F6B25E
:101FB000B8F1000F02D021462846C0470AF1010AB5
:101FC000BAF1040FADD186B14FF0A043039AD3F814
:101FD00010359A4209D00393049B05939CE7032B89
:101FE000ECD1032CE4D10221DDE707B0BDE8F08F8E
:101FF0000061004000600040206100407C610040C2
:102000007C10002010B5054C22681AB904495120F3
:10201000FEF754FD2368BDE810401847D810002093
:102020000B99000000F1804000F5E040002382B0F1
:10203000036003680193019B02B07047F0B5514BF8
:10204000514C1B6885B0DBB14FF4827094F82E20A0
:10205000FFF7E8FF12B194F82F30A3B16368029341
:102060002389ADF80C30E36800218DF80410002BB3
:1020700044D12374236801A89847002384F82F30A3
:1020800094F82E3003B3414B1B68EBB14FF48070D2
:10209000FFF7C8FF94F82D20638B91B28B4238D99B
:1020A0005B1A21899BB26383CB1A616801EB430100
:1020B000374BC3F82C16C3F830264FF48270FFF765
:1020C000B1FF344B01221A60334B1B685BB14FF4F4
:1020D0008870FFF7A7FF002304A82374022300F8E9
:1020E0000C3D236898472D4B1B6813B34FF48A703F
:1020F000FFF798FF0023237405B0F0BD208B6083A9
:1021000063602081E160002AB4D1214B01221A6072
:10211000B0E7D2D1E368012184F82F103BB1002150
:1021200061831B49C1F82C36C1F83026C5E76383AB
:10213000C3E766694FF000470125002EDCD0B6FAF0
:1021400086F227FA02F34632920026EA030602F1EB
:10215000804303F5E0431B68002BEED01046FFF7E9
:1021600061FFA2F58C72D30882F00402C2F38002F0
:102170008DF808308DF804508DF80920236801A8E7
:102180009847DAE704710040E01000200071004039
:102190000070004004700040107100401471004055
:1021A000024940F2C710FEF789BC00BF75980000D5
:1021B0001F2810B5044601D9FFF7F2FF012303FAE7
:1021C00004F44FF0A043C3F80C4510BD1F2810B510
:1021D000044601D9FFF7E4FF012303FA04F44FF0AA
:1021E000A043C3F8084510BD4FF0402313B5D3F802
:1021F00018310BB3114B124C00221A601B6801936B
:10220000019B236823B90F4940F28E20FEF756FC4C
:10221000E07FFF2803D0A37F5BB1FFF7C9FF002356
:1022200063772372D4E90031074802B0BDE810405B
:102230001847FFF7CBFFF2E702B010BD184100408E
:102240001011002063990000181100202DE9F743B8
:10225000002406460F4600F5A0754FF48038A146CD
:1022600004F150002B68800080B26BB1D6F80433C3
:1022700008FA04F21A4207D0C5F800902B680193BF
:10228000019BD7E9003198470134042C05F104057E
:10229000E6D103B0BDE8F08301490248FFF7D6BF9D
:1022A000341100200080004001490248FFF7CEBFF2
:1022B00040110020009000400023435082B043585A
:1022C0000193019B02B07047F0B5504C236887B072
:1022D00023B94F4940F22D20FEF7F0FB4D4AD2F8CA
:1022E00024311546A3B14FF492711046FFF7E4FF75
:1022F000D2F8043163B9A368C2F808330223A3609B
:10230000A368C2F8043301231362536107B0F0BD20
:10231000D5F80431002B49D03F4F3E484FF482712D
:10232000FFF7CAFF0FCF01AE0FC63B68336094F8CA
:102330002E307BB1237B012B0CBFD5F83C25D5F883
:102340004C250292022B334B0CBFD3F83C35D3F80B
:102350004C3503934FF4B0712E48FFF7ADFF4FF4A7
:10236000AE712C48FFF7A8FF94F8303013B194F801
:102370002E303BB1274B0022C3F80022A260274A2F
:10238000C3F80823234AD2F8C434C2F8C4349A07E5
:1023900036D501238DF8003094F830300BB984F82D
:1023A0002F30D4E9003168469847AFE74FF4A47165
:1023B0001848FFF781FF237B83B9174F0FCF01AE7A
:1023C0000FC63B68336094F83030002BDAD1C5F883
:1023D0000032A360114BC5F80833D3E74FF4007304
:1023E000C5F8003240F20223A36003F1CE73C5F8B2
:1023F0000833A368C5F804330123AB602B6285E77B
:1024000013F0040318BF0223C4E700BF4C110020DF
:10241000B9990000003000405811002002029C01D0
:102420000369C1688B429DBF8268D21802F1FF32F6
:1024300003F1FF3394BF501A581A70472DE9F04149
:10244000D0E902670446F61B406896428846154666
:10245000384405D900F0AEFA3D44E560BDE8F081AE
:102460003246AD1B00F0A6FA2A4608EB060160686A
:1024700000F0A0FAF1E72DE9F843C5680646894661
:1024800017464FF000083469B3687068A54228BF4A
:10249000E418013C621B5C1BBC4228BF3C469442D2
:1024A00028BF144649462844224600F083FAB36800
:1024B0002544AB4208BF00253F1BA044A144F56062
:1024C000E1D14046BDE8F88310B5114C114AA26134
:1024D0000223C4E90433104BE361A2644FF4007398
:1024E0000E4A2362E264002310220D49A362E01D1C
:1024F0006362E362A3656365E365226500F070FCD7
:102500000849204600F06CFC2023A37110BD00BFD9
:10251000C8130020149A00009011002080110020A0
:102520001D9A0000219A0000F8B5184C182300FBF2
:10253000033503FB00402544C46A012C0F461646B0
:1025400011D003D3022C1BD000240AE02846FFF749
:1025500067FF864205D8324639462846FFF76EFFA8
:1025600034462046F8BD2846FFF75AFF86423446D7
:1025700028BF0446224639462846FFF75FFFF0E7AA
:102580002846BDE8F840FFF776BF00BFC81300201B
:1025900070B50B4B1B7804460D4616460BB9FFF77A
:1025A00093FF0020FEF7C2F9324629462046FFF786
:1025B000BBFF04460020FEF7C9F9204670BD00BFEE
:1025C000C8130020FFF780BF10B511461C461A46FD
:1025D0000020FFF7DDFF204610BD00000C4B1B78EC
:1025E000062B10D10B4B1B681A070CD10A4B18682D
:1025F00000F0F003302B08D000F0E000A0F1400321
:10260000584258417047002070470120704700BF72
:10261000E00F00F0E40F00F0E80F00F0094B1B782A
:10262000062B0CD1084B1B681A0708D1074B1868FA
:1026300000F0F000A0F130035842584170470020EC
:10264000704700BFE00F00F0E40F00F0E80F00F06B
:1026500008B5FFF7C3FF28B17D4B7E4A1B68C3F363
:1026600004231360FFF7DAFF10B17B4B7B4A1A603B
:10267000FFF7B4FF28B17A4B7A4A1B68C3F34233A1
:102680001360FFF7CBFF20B1774AD36823F0807344
:10269000D360FFF7A3FF40B14FF080430022C3F89F
:1026A0000C21C3F81021C3F83825FFF7B7FF10B18C
:1026B0006E4B03221A60FFF7B1FF40B16C4B05224D
:1026C0001A6001229A6700229A603F225A60694B81
:1026D0001B78062B50D1684B1B6819074CD1674BF0
:1026E0001B6803F0F003502B46D14FF08052644B2F
:1026F000D2F80414C3F82015D2F80814C3F824152E
:10270000D2F80C14C3F82815D2F81014C3F82C15FD
:10271000D2F81414C3F83015D2F81814C3F83415CD
:10272000D2F81C14C3F84015D2F82014C3F844158D
:10273000D2F82414C3F84815D2F82814C3F84C155D
:10274000D2F82C14C3F85015D2F83014C3F854152D
:10275000D2F83414C3F86015D2F83814C3F86415ED
:10276000D2F83C14C3F86815D2F84014C3F86C15BD
:10277000D2F84424C3F87025FFF730FF28B1414B4D
:10278000414A1B6803F04F031360FFF727FF48B16E
:102790004FF08043D3F80024D20744BF6FF001020A
:1027A000C3F80024394B1B68062B08D1384B1B6833
:1027B000062B01BF374A136843F480631360364A1F
:1027C000D2F8883043F47003C2F88830BFF34F8FDB
:1027D000BFF36F8F4FF01023D3F80022002A03DBE2
:1027E000D3F80432002B2FDA2C4B0122C3F8042536
:1027F000D3F80024002AFBD04FF010221521C2F894
:102800000012D3F80024002AFBD04FF01023152229
:10281000C3F80422214B1A46D3F800140029FBD038
:102820000021C3F80415D2F80034002BFBD0BFF30D
:102830004F8F19491A4BCA6802F4E0621343CB6008
:10284000BFF34F8F00BFFDE7164B174A1A6008BD54
:10285000240300104035014074C007400DF0ADBAAC
:10286000440200103C050040F0ED00E0A0050040EF
:1028700010560040E00F00F0E40F00F0E80F00F009
:1028800000C0004058020010E40E0040300100106B
:10289000340100103C17004000ED00E000E0014072
:1028A0000400FA05100000200090D0030649074AF2
:1028B000074B9B1A03DD043BC858D050FBDCFFF7E5
:1028C000C7FEFDF7BDFC0000389D000000000020A1
:1028D000000A0020FEE7FEE7FEE7FEE7FEE7FEE770
:1028E000FEE7FEE7FEE7FEE708B50021044602F03A
:1028F00055F9044B1868C36B03B19847204605F09F
:1029000009FA00BF289A000070B50D4E0D4D761BD8
:10291000B61006D00024013455F8043B9847A6426F
:10292000F9D1094E094D761B06F00AF8B61006D00B
:102930000024013455F8043B9847A642F9D170BDF4
:10294000C0090020C0090020CC090020C0090020D7
:10295000044B054A1B685B6B002B08BF134693F8BA
:10296000280170471400002040040020044B054A51
:102970001B685B6B002B08BF1346D3F8EC00704755
:10298000140000204004002082B049B15AB16BB15C
:1029900013780B601278101C18BF012002B070472A
:1029A00001A9002AF3D1104602B070476FF0010070
:1029B000F4E700BF844641EA000313F003036DD13E
:1029C000403A41D351F8043B40F8043B51F8043BF2
:1029D00040F8043B51F8043B40F8043B51F8043BF9
:1029E00040F8043B51F8043B40F8043B51F8043BE9
:1029F00040F8043B51F8043B40F8043B51F8043BD9
:102A000040F8043B51F8043B40F8043B51F8043BC8
:102A100040F8043B51F8043B40F8043B51F8043BB8
:102A200040F8043B51F8043B40F8043B51F8043BA8
:102A300040F8043B51F8043B40F8043B51F8043B98
:102A400040F8043B403ABDD2303211D351F8043B38
:102A500040F8043B51F8043B40F8043B51F8043B78
:102A600040F8043B51F8043B40F8043B103AEDD2E7
:102A70000C3205D351F8043B40F8043B043AF9D238
:102A8000043208D0D2071CBF11F8013B00F8013B0B
:102A900001D30B8803806046704700BF082A13D318
:102AA0008B078DD010F003038AD0C3F10403D21A30
:102AB000DB071CBF11F8013B00F8013B80D331F864
:102AC000023B20F8023B7BE7043AD9D3013A11F8E4
:102AD000013B00F8013BF9D20B7803704B7843704F
:102AE0008B78837060467047F0B4860743D0541EDD
:102AF000002A3ED0CAB2034602E014F1FF3438D3B4
:102B000003F8012B9D07F8D1032C2BD9CDB245EA50
:102B100005250F2C45EA054516D9A4F110073F09F4
:102B200003F1200606EB071603F1100242E90455F3
:102B300042E902551032B242F8D104F00F040137D5
:102B4000032C03EB07130DD91E462246043A032A31
:102B500046F8045BFAD8221F22F003020432134421
:102B600004F003042CB1C9B21C4403F8011B9C42BD
:102B7000FBD1F0BC704714460346C5E70FB400B55F
:102B8000074983B004AB086853F8042B81680193AC
:102B900000F006FA03B05DF804EB04B0704700BF24
:102BA0001400002070B5054688B008460C4600F0B9
:102BB00087F9224AAB6B04940126441C04A90692AF
:102BC000022203940590AC680796CDE901121BB36D
:102BD000616EB4F90C30CE079AB201D4900525D5B8
:102BE000910406D4626E43F4005322F40052A38190
:102BF0006266284601AA214603F08AFA636E00281D
:102C00000CBF0A254FF0FF35DA0702D4A3899B05D4
:102C100006D5284608B070BD284603F0E3F8D7E78C
:102C2000A06D03F031FC284608B070BDA06D03F024
:102C300029FCB4F90C309AB2D2E700BF3C9A0000EC
:102C4000024B01461868FFF7ADBF00BF140000201B
:102C500000290CBF022200224FF4806300F000B86C
:102C60002DE9F0435D4C256883B00446884616463E
:102C70001F4615B1AB6B002B7ED0022E05D0012E66
:102C800000F2A980002FC0F2A680636EDA0735D566
:102C90002146284603F04AF8216B41B104F1400374
:102CA000994202D0284603F03FF900232363B4F988
:102CB0000C3000221806A261626061D423F44A63DA
:102CC00023F00303022EA3811FD10025616E002093
:102CD00004F1430243F00203A060C9074FF0010072
:102CE000A3812260C4E9042004D49B0502D4A06D12
:102CF00003F0CAFB284603B0BDE8F083A3899B0517
:102D0000C6D4A06D03F0BEFBC2E701AB6A46214604
:102D1000284603F0BBFBA3891843A081002F36D1BE
:102D2000009F384603F02AFC8046002842D0A38941
:102D300043F08003A381AB6B7BB3009AB4F90C30F2
:102D4000C4F80080BA421CBF43F40063A381012E83
:102D500004BF43F00103A3819BB213F00802C4E94E
:102D600004871ED1A260656E15F00105BDD0002557
:102D7000284603B0BDE8F083284603F033F87CE72B
:102D80002169284603F0D0F8B4F90C3096E7B8F181
:102D9000000FC6D0AB6B002BCFD1284603F022F832
:102DA000CBE7DA0704D57F420022A761A260DAE709
:102DB000A760D8E7DDF80090B94504D1B4F90C302C
:102DC0004FF0FF3582E7484603F0D8FB80460028E5
:102DD000F4D04F46ABE74FF0FF358BE714000020EF
:102DE00080EA0102844612F0030F4FD111F0030F65
:102DF00032D14DF8044D11F0040F51F8043B0BD0C3
:102E0000A3F101329A4312F0803F04BF4CF8043B17
:102E100051F8043B16D100BF51F8044BA3F1013225
:102E20009A4312F0803FA4F101320BD14CF8043BDD
:102E3000A24312F0803F04BF51F8043B4CF8044B0E
:102E4000EAD023460CF8013B13F0FF0F4FEA33237F
:102E5000F8D15DF8044B704711F0010F06D011F85E
:102E6000012B0CF8012B002A08BF704711F0020F4C
:102E7000BFD031F8022B12F0FF0F16BF2CF8022B37
:102E80008CF8002012F47F4FB3D1704711F8012B5A
:102E90000CF8012B002AF9D1704700BF0000000098
:102EA0000000000000000000000000000000000022
:102EB0000000000000000000000000000000000012
:102EC00090F800F06DE9024520F007016FF0000C6A
:102ED00010F0070491F820F040F049804FF0000412
:102EE0006FF00700D1E9002391F840F000F10800ED
:102EF00082FA4CF2A4FA8CF283FA4CF3A2FA8CF325
:102F00004BBBD1E9022382FA4CF200F10800A4FA8B
:102F10008CF283FA4CF3A2FA8CF3E3B9D1E90423DF
:102F200082FA4CF200F10800A4FA8CF283FA4CF316
:102F3000A2FA8CF37BB9D1E9062301F1200182FAD0
:102F40004CF200F10800A4FA8CF283FA4CF3A2FAD6
:102F50008CF3002BC6D0002A04BF04301A4612BAE4
:102F6000B2FA82F2FDE8024500EBD2007047D1E9E7
:102F7000002304F00305C4F100004FEAC50514F076
:102F8000040F91F840F00CFA05F562EA05021CBF47
:102F900063EA050362464FF00004A9E70000000061
:102FA0002DE9F04FD7B01C468946174605460390D9
:102FB00003F056FA036816931846FFF781FF08944A
:102FC00015901DB1AB6B002B00F00781D9F8641090
:102FD000B9F90C20C80793B202D4990540F11F81BA
:102FE0009E040AD4D9F8641042F4005321F400512D
:102FF000A9F80C30C9F864109BB21D0740F1B280EB
:10300000D9F81020002A00F0AD8003F01A020A2A35
:1030100000F0C98000239FED867B1093CDE92B3310
:103020001793CDE919331B93189305932DAB2A936E
:103030009B463B78CDF81C908DED127B002B00F069
:103040005982252B3C4602D11DE0252B03D014F8D4
:10305000013F002BF9D1E51B8DB1DDE92B320133A6
:103060002A44072BCBF80070CBF80450CDE92B3263
:1030700000F3CA800BF1080B059B2B4405932378C2
:10308000002B00F0378200236678069398468DF86F
:103090008B3004F1010A4FF0FF392B250AF1010AA8
:1030A000A6F120035A2B00F22A84DFE813F0AA03CA
:1030B000280428049C02280428042804A7022804C1
:1030C0002804C602D2022804D702DC022804F60231
:1030D0006D026D026D026D026D026D026D026D0278
:1030E0006D0228042804280428042804280428043D
:1030F000FB0228043C03F303FB02FB02FB0228044F
:10310000280428042804EE03280428049A0028042C
:103110002804280450032804790328042804900371
:10312000280428042804280428042804280428043F
:10313000FB0228043C03C500FB02FB02FB02D10397
:10314000C50070002804B5032804C2039C00DE03F8
:1031500070002804500372002C02280428047C020A
:10316000280472004946039801F0A8FCA0B1D9F8E0
:103170006430D80704D4B9F80C30990540F1B7830E
:103180004FF0FF330593059857B0BDE8F08F48F036
:1031900020089AF8006081E7B9F80C3003F01A02B1
:1031A0000A2A7FF437AFB9F90E20002AFFF632AFB2
:1031B000D9F86420D20705D49B0503D4D9F8580068
:1031C00003F062F923463A464946039801F026FC8B
:1031D0000590059857B0BDE8F08F039802F002FE05
:1031E000F4E648F0100818F0200F00F06C83089CFB
:1031F000073424F00703D3E9004503F108020892DD
:1032000028F4806300228CE12AAA0799039804F02D
:10321000DFFA002841F076830DF1B40B2CE7D9F8E2
:10322000580003F02FF9B9F90C2093B2D8E600BF8B
:10323000000000000000000043469F0640F12F837D
:10324000089C073424F00704D4E9000104F10802C3
:10325000089204460D46002871F1000205DA2D227D
:10326000644265EB45058DF88B2056AAB9F1FF3F06
:10327000049200F0B284012254EA050123F0800890
:1032800040F05981B9F1000F40F01986002A40F052
:10329000088513F0010356AF099302D0302307F8D5
:1032A000013D00230A930F9314931193099B9DF8FA
:1032B0008B204B45B8BF4B46049312B1049B01339E
:1032C000049318F002030B9302D0049B023304937F
:1032D00018F084032C9C0E933FD1069B04995D1A31
:1032E000002D3ADD102D2B9A29DD594620462096D7
:1032F0001023039C079EBB4604E0103D102D01F1F6
:10330000080118DD0132BA4F1030072ACDE92B2011
:10331000C1E90073F1DD2AAA314620460C9304F07E
:1033200057FA002840F03D84103D102DDDE92B2098
:103330002DA90C9BE6DC209E5F4604468B4601329D
:10334000AB4B2C44072ACDE92B24CBE9003500F305
:10335000FF849DF88B200BF1080B72B12B9A013280
:1033600001340DF18B000121072ACDE92B24CBE993
:10337000000100F318840BF1080B0B9B6BB12B9B26
:103380000133023423A90222072BCDE92B34CBE9E8
:10339000001200F315840BF1080B0E9B802B00F03C
:1033A0003183099BA9EB0305002D37DD102D2B9AE6
:1033B000904B28DD59462046BB464FF01009374652
:1033C0001C46079E04E0103D102D01F1080115DD9B
:1033D00001321030072ACDE92B20C1E90049F2DD86
:1033E0002AAA3146039804F0F3F9002840F0D98363
:1033F000103D102DDDE92B202DA9E9DC3E462346AA
:103400005F4604468B4601322C44072ACDE92B2423
:10341000CBE9003500F3EF830BF1080B18F4807F44
:1034200040F080822B9B099ACBF800700133144442
:10343000072B2C94CBF804202B9300F392830BF1F1
:10344000080B18F0040F3BD0069B049A9D1A002D20
:1034500036DD102D2B9B21DD1026039FDDF81C800F
:1034600004E0103D102D0BF1080B17DD0133604A0D
:103470001034072BCDE92B34CBE90026F1DD2AAA45
:103480004146384604F0A4F9002840F06C85103D10
:10349000102DDDE92B340DF1B40BE7DC0133544A78
:1034A0002C44072BCDE92B34CBE9002508DD2AAAD3
:1034B0000799039804F08CF9002840F0E9822C9CCD
:1034C0000499DDE905328A42ACBF9B185B1805936D
:1034D000002C40F0D58200232B930A9B1BB10A9944
:1034E000039802F021FD0DF1B40B57463B78002BF9
:1034F0007FF4A7AD2C9BDDF81C90002B41F0E780FA
:1035000000232B93CBE243469A0640F14E81089C60
:10351000073424F0070202F10801D2E900450891BE
:10352000012200218DF88B10B9F1FF3F56A90491BB
:103530007FF4A2AE9846012A00F05083022A00F0E0
:103540001B8356A900E03946E20842EA4572E808C2
:1035500004F0070305461446303354EA050201F827
:10356000013C01F1FF37EED118F0010F00F0148398
:10357000302B00F01183049A02393023521A07F8D5
:10358000013C09920F468CE6A6F1300300221AF89E
:10359000016B02EB820203EB4202A6F13003092B1E
:1035A000F5D906927CE5144B179318F0200F00F024
:1035B0001481089C073424F00703D3E9004503F184
:1035C0000802089218F0010F09D054EA050306D04A
:1035D00030238DF88D6048F002088DF88C3028F487
:1035E000806302229DE748F001089AF8006055E5E3
:1035F000849A0000949A0000509A0000039E30467E
:1036000002F02EFF436818931846FFF759FC1B90F1
:103610000446304602F024FF83681A93002C3FF4DE
:10362000B8AD9AF80060002B3FF438AD1B78002B42
:103630003FF434AD48F4806830E5089B9AF80060A8
:103640001A680692002A03F10403C0F297860893D1
:1036500024E58DF88B509AF800601FE59AF8006019
:1036600048F004081AE59AF800602A2E0AF10102CF
:1036700001F0B081A6F13003092B92464FF000090A
:103680003FF60EAD1AF8016B09EB890903EB490906
:10369000A6F13003092BF5D902E548F080089AF825
:1036A0000060FBE4089C073424F0070494ED007BE1
:1036B00052EC171B22F000431D938DED1C7A083449
:1036C000DDE91C014FF0FF32BA4B08948DED127BFF
:1036D00004F078FF002840F06F844FF0FF32B54BC4
:1036E000DDE91C0104F050FF002840F06584002251
:1036F0000023DDE9120104F03DFF002840F05B8566
:103700009DF88B20AC4FAD4B0020032104910A9013
:1037100028F08008472ED8BF1F46099181460F9098
:1037200014901190C9E50898002301688DF88B303A
:103730001A468DF8F4100123011D04930A92914654
:103740000F9214921192CDE908133DAFB9E5089B91
:103750001F6800258DF88B501C1D002F00F0398646
:10376000B9F1FF3F00F011874A462946384603F079
:10377000BFF90A90002800F0E7850A9BDB1B09933C
:10378000A94623EAE37308940493CDF82890CDF872
:103790003C90CDF85090CDF844909DF88B208CE56E
:1037A00048F010039A063FF5B2AE089ADF0602F120
:1037B000040100F17E835D06089A00F1E4849C0513
:1037C00040F177831478089100250122A9E67C4B0B
:1037D000179318F0200F7FF4ECAE089A18F0100F32
:1037E00002F1040340F0548318F0400F089A40F0AF
:1037F000D08418F4007F00F04B83147808930025E0
:10380000E0E69DF88B309AF80060002B7FF446AC20
:1038100020238DF88B3041E49AF800606C2E03BFB2
:103820009AF8016048F020080AF1010A48F01008EF
:1038300034E4089A18F0200F52F8043B089200F084
:10384000A183059A1046D117C3E9000157464DE6FA
:103850009AF80060682E03BF9AF8016048F4007877
:103860000AF1010A48F0400818E40899554B0C6821
:10387000179347F630020431ADF88C2048F002036C
:1038800008910025022278264BE648F008089AF8AD
:10389000006003E448F010039F063FF5D1AC08999F
:1038A000DD0601F1040200F1FD825C06089900F1D9
:1038B0007584980540F1F68291F900400892E51769
:1038C00020462946C7E4089A18F0100F02F10403B5
:1038D00040F0E38218F0400F089A40F0678418F433
:1038E000007F00F0DA8214780893002588E4D9F884
:1038F000580002F0C9FD4FF0FF33059343E4002E5A
:103900003FF4F8AD002301211A4604918DF8F460CC
:103910008DF88B300A9399460F9314931193099164
:103920003DAFCEE4652E40F3CA8000220023DDE9DE
:10393000120104F015FE002800F069812B9B224A39
:10394000CBF80020013301340122072BCDE92B34C1
:10395000CBF8042000F306840BF1080B249B109A8B
:103960002C9C934203DB18F0010F3FF46AAD2B9BB4
:10397000169ACBF80020159ACBF804200133144492
:10398000072BCDE92B3400F317850BF1080B109BA7
:103990005D1E002D7FF755AD102D2B9A0B4B40F37C
:1039A000E782194610262346039FDDF81C900C463B
:1039B00014E000BFFFFFEF7F449A0000409A000030
:1039C000649A0000509A0000809A0000949A0000C7
:1039D0000BF1080B103D102D40F3C782013210335C
:1039E000072ACDE92B23CBE90046F1DD2AAA494677
:1039F000384603F0EDFE00284CD1DDE92B230DF114
:103A0000B40BE7E7069B049A9D1A002D7FF7C9AC1B
:103A1000102D2B9ABC4B27DD59462046BB461C4631
:103A20003746079E04E0103D102D01F1080116DD18
:103A3000013210301023072ACDE92B200C604B6097
:103A4000F1DD2AAA3146039803F0C2FE002840F0B7
:103A5000A880103D102DDDE92B202DA9E8DC3E4685
:103A600023465F4604468B4601322C44072ACDE9A3
:103A70002B24CBE9003500F392820BF1080B90E484
:103A80002AAA0799039803F0A3FE00283FF423AD68
:103A9000DDF81C900A9911B1039802F045FAD9F8A3
:103AA0006420B9F80C30D00702D4990540F1D081D8
:103AB0005A063FF565AB059857B0BDE8F08F109AF0
:103AC0002B9B012A04F1010403F101050BF1080607
:103AD00040F31C810123072DCBF80070CDE92B5456
:103AE000CBF8043000F3BB81159B169A691C1C446B
:103AF00007290B91CDE92B14C6E9002300F3BB8104
:103B000008360B9A531C1D460995109D0E930022F2
:103B10000023DDE9120105F1FF3906F1080B04F07D
:103B20001FFD002840F0C280099DC6F804900137AF
:103B30004C44072D37602C942B9500F3F9800B9A99
:103B400006F1100302325E4609929B46199A726092
:103B50001444099A2C9426AB072A2B9233607FF7E2
:103B600070AC2AAA0799039803F032FE00288FD17F
:103B70002C9C0DF1B40B64E4179856AF230904F0A4
:103B80000F0143EA05732A091C461546435C07F8F2
:103B9000013D54EA0503F1D1049BDB1B0993FFF7B8
:103BA00080BBB14676E72AAA0799039803F010FE76
:103BB00000287FF46DAF2C9C0DF1B40BFFF7DDBB3B
:103BC0002AAA0799039803F003FE00287FF460AF48
:103BD0002C9C0DF1B40BFFF7E0BB9846002D08BFFD
:103BE0000A2C80F0708156AF3034012307F8014D64
:103BF0000993FFF756BB2AAA0799039803F0E8FD3B
:103C000000287FF445AF2C9C0DF1B40B06E4249BF7
:103C1000002B40F37382DDE910239342A8BF1346C3
:103C2000002B1D460DDD2B9BCBF8007001332C447F
:103C3000072B2C94CBF804502B9300F3C1820BF18B
:103C4000080B119B002DA8BF5B1B002B1D4640F3EA
:103C50009980102D2B9A2C4B40F3DB83184621467C
:103C60005B461026BB46DDF80C90079C074604E037
:103C70000833103D102D40F3C78301321031072A5D
:103C8000CDE92B21C3E90076F2DD2AAA2146484678
:103C900003F09EFD002840F0A584DDE92B212DAB2B
:103CA000E7E7CDF8249056AFFFF7FBBAB9F1000F64
:103CB0007FF74CAFB9F1100F134B40F359861946FB
:103CC000224633461027DDF80CB0079C0E9D0E46A9
:103CD00007E00833A9F11009B9F1100F40F353833D
:103CE00001351032072DCDE92B52C3E90067F0DD15
:103CF0002AAA2146584603F06BFD002840F0728442
:103D0000DDE92B522DABE5E7949A000018F0010F86
:103D10007FF4E0AE0122072DCBF80070CDE92B54E3
:103D2000CBF8042004DC023309930BF1100B0DE7F0
:103D30002AAA0799039803F04BFD00287FF4A8AE48
:103D4000DDE92B34013309930DF1BC0B2DAEFDE6FB
:103D50002AAA0799039803F03BFD00287FF498AE48
:103D60009DF88B202C9C0DF1B40BFFF7F6BA2AAA14
:103D70000799039803F02CFD00287FF489AE2C9C52
:103D80000DF1B40B119B18F4806F3B44994640F041
:103D90005783249B109A934249DB18F0010F46D1B8
:103DA000109ABD18A5EB0905D31A9D42A8BF1D4660
:103DB000002D0DDD2B9ACBF8009001322C44072A00
:103DC0002C94CBF804502B9200F362840BF1080B77
:103DD000002DACBF5D1B1D46002D7FF732AB102DB3
:103DE0002B9AC54B40F3C480194610262346039FE7
:103DF000DDF81C900C4605E00BF1080B103D102D72
:103E000040F3B38001321033072ACDE92B23CBE9ED
:103E10000046F1DD2AAA4946384603F0D9FC0028BD
:103E20007FF438AEDDE92B230DF1B40BE6E72B9AD6
:103E30001699CBF800101599CBF8041001320C44F8
:103E4000072A2C942B9200F38C820BF1080BA7E726
:103E5000D9F8580002F018FBB9F80C3028E62AAA65
:103E60000799039803F0B4FC00287FF411AEDDE954
:103E70002B542DAE38E62AAA0799039803F0A8FC24
:103E800000287FF405AEDDE92B342DAE0B9338E628
:103E9000146808930025FFF795BB14680893002564
:103EA000FFF7AEB90C680892E51720462946FFF7E0
:103EB000D2B91468089101220025FFF732BB012A0C
:103EC0007FF43CAB8FE608F480630022CDE909A6BD
:103ED000CDF82C8056AF9246DDF868801E460AE089
:103EE0000023204629460A2204F0AAFB04460D4678
:103EF00054EA050329D00A2200232046294604F06B
:103F00009FFB303207F8012C0AF1010A013F002E15
:103F1000E6D098F800309A45E2D1BAF1FF0FDFD031
:103F2000002D08BF0A2CDBD31B9B1899FF1A1A46D9
:103F3000384603F0DFFB98F80130002B00F0968440
:103F400008F101084FF0000ACAE7049BCDF8688029
:103F5000DB1BCDF840A00A9EDDF824A0DDF82C8004
:103F60000993FFF79EB9C14694E521461C460B46CE
:103F700001322C44072ACDE92B24CBE900357FF709
:103F80005EAAEEE518F0100F40F0F88018F0400F30
:103F900000F05183059A1A805746FFF7A7BA2AAA5C
:103FA0000799039803F014FC00287FF471AD2C9C52
:103FB0000DF1B40BFFF7F5B9DDE9120102460B462E
:103FC00004F000FB002840F09184612E00F0118184
:103FD000412E00F0778348F4807326F02002B9F177
:103FE000FF3F0E930492139B00F02D84472A00F0AC
:103FF0002484002BC0F2F9829DED127BCDE90A00EA
:104000008DED1E7B662E00F0EB83462E00F07E8445
:10401000049B0398452B0CBF09F101054D4628AAC6
:1040200025ABCDE90032022124AB2A469DED1E0BC3
:1040300000F0C2FE672E074640F09C8418F0010F86
:1040400040F0F983289B4046DB1BDDF83880109355
:10405000249B1193049B472B00F0E781049B462B84
:1040600000F000830499119BF2B2412908BF0F327E
:1040700003F1FF3306BFD2B201210021002B2493AC
:10408000B8BF119B8DF89820BABFC3F101032D2250
:104090002B22092B8DF8992000F3F983002940F099
:1040A000878430228DF89A200DF19B0230331370F3
:1040B000531C26AA9B1A109A1993012A1344099398
:1040C00040F34284099B159A1344099300230F93EC
:1040D00014931193099B20F4806023EAE37340F466
:1040E000807804930B9B002B40F0758299469DF8D5
:1040F0008B20FFF7E2B800BF949A00002B9ABD49CD
:10410000CBF80010013201340121072ACDE92B241C
:10411000CBF8041060DC0BF1080B2BB9109A1AB91C
:1041200018F0010F3FF48DA92B9A1699CBF80010C7
:104130001599CBF8041001320C44072A2C942B92C9
:1041400000F382820BF1080B002BC0F2E782109B78
:1041500001321C44072ACDE92B24CBE900737FF7F9
:104160006EA9FEE42AAA0799039803F031FB002800
:104170007FF48EAC0DF1B40BFFF7F0BB059A1A601B
:104180005746FFF7B3B91488089100250122FFF7BD
:10419000C8B9148808930025FFF714BAB1F9004094
:1041A0000892E51720462946FFF755B8148808936A
:1041B0000025FFF725B82D228DF88B20FFF7A2BA36
:1041C0002AAA0799039803F003FB00287FF460AC48
:1041D0002C9C0DF1B40B34E52AAA0799039803F03F
:1041E000F7FA00287FF454AC249B2C9C0DF1B40BFF
:1041F00093E730238DF88C307823B9F1630F8DF875
:104200008D3048F0020400F3B08248F481730E93BD
:1042100026F0200304930022139B0A92A0463DAF90
:10422000002BC0F2E3819DED127B8DED1E7B002300
:104230000B93612E00F05582412E7FF4E3AE24A84B
:104240009DED1E0B03F0CCF900224FF07F5351EC93
:10425000100B03F01DFF00220023CDE90C0104F038
:104260007FF9002840F00583634B0993CDE90FA641
:1042700009F1FF34CDF850902197B946CDF844B0FC
:10428000CDF88080DDF824A0DDE90C6703E004F0C0
:1042900067F920BBA9460022584B3046394603F047
:1042A000F7FE0F46064604F0A3F9804603F086FEAB
:1042B00002460B463046394603F032FD4D461AF8A9
:1042C00008C005F801CBB4F1FF3FA34606460F46F0
:1042D0004FF000024FF0000304F1FF34D7D1304615
:1042E00039460022464BDDF83CA0109ECDF83CB08C
:1042F0004446CDF84090DDF88080DDF85090DDF840
:1043000044B0219FCDE90C0104F052F9002840F09F
:104310007681DDE90C010022394B04F021F910B15E
:10432000E20700F16C810F9B002B07DB0F9B013331
:104330002B44302205F8012BAB42FBD1EB1B40464E
:104340001093DDF8388083E6CDF81090CDF82490F6
:10435000089481460F90149011909DF88B20FEF7E1
:10436000ACBF2AAA0799039803F032FA00287FF419
:104370008FAB249B2C9C0DF1B40B11E5524206929D
:104380000893FFF76DB9144632461E4613462A4677
:104390000132099206F10802C6E90039099B2B9304
:1043A0004C44072B2C943FF7C3AC0133099302F123
:1043B000080B1646FFF7CABB2AAA0799039803F011
:1043C00007FA00287FF464AB2C9C0DF1B40BFFF7C7
:1043D000DEBA4B46062B28BF0623B9460F97149723
:1043E00011970A973A460493CDE90843054FFEF723
:1043F00064BF00BF809A0000649A00000000304053
:104400000000E03F789A00000C4639465F469B4624
:104410000B4601322C44072ACDE92B24CBE9003589
:104420003FF7A5AC0BF1080BACE4119BDA1C02DBE7
:10443000994580F2B580023E26F02003049311E6F0
:10444000109BCDF838805A46DDE91A8BFB18CDF861
:104450002CA00C97AF4EDDF81CA009934F46DDF859
:104460000C902146149B002B5BD00F9B002B54D14A
:10447000149B013B08F1FF3814932B9B1898106094
:1044800001335944072B2C91C2F804B02B9368DCFC
:104490000832099898F80030C51B9D42A8BF1D46F8
:1044A000002D0BDD2B9B176001332944072B2C912A
:1044B00055602B935EDC98F800300832002DACBFBD
:1044C0005D1B1D46002D26DD102D2B983CDD102494
:1044D00003E00832103D102D36DD01301031072881
:1044E000CDE92B01C2E90064F3DD2AAA5146484612
:1044F00003F06EF9002850D1DDE92B012DAAE9E780
:104500002AAA5146484603F063F9002845D198F895
:1045100000302C992DAA1F44A4E70F9B013B0F9359
:10452000ABE70F9B002BF8D1B946109B0C9FCDF841
:104530006880FB189945DDF82CA0DDF8388093469B
:104540000C4628BF994624E4013029440728CDE9C8
:104550002B01C2E90065D3DC98F8003008321F4413
:1045600080E72AAA5146484603F032F9A8B92C99A7
:104570002DAA8EE72AAA5146484603F029F960B9C8
:1045800098F800302C992DAA98E73846FEF798FC49
:10459000A94603460990FFF7F4B8D146FFF77ABA67
:1045A000109B1946119B994200F38280C40740F189
:1045B0006B81159A13440993410503D5119B002B78
:1045C00000F3E680099B23EAE37304936726002344
:1045D0000F93149386E52D228DF88B204FF0000960
:1045E000FEF76CBEA146FFF755BA0A90DDE912123C
:1045F00002F100431F932D231E910B9319E6109B8C
:104600002893099B15F8012CD97B91422B4609D19F
:10461000302003F8010C289B5A1E289213F8012C15
:104620009142F6D0392A0BBF099A0132927AD2B25E
:1046300003F8012C82E618F4007F3FF49FAD059A41
:104640001A705746FEF752BF2AAA0799039803F03B
:10465000BFF800287FF41CAA249BDDE92B240DF170
:10466000B40B71E5119B002B40F36481119BB9F1F0
:10467000000F40F00381C60700F100810993662610
:10468000430500F18680099B23EAE37304939EE7C8
:104690002AAA0799039803F09BF800287FF4F8A949
:1046A000249B109A2C9CD31A0DF1B40BFFF790BBEE
:1046B000109B159A13440993119B002B40F34981D9
:1046C0006726DDE730238DF88C30582395E5039875
:1046D0002AAA494603F07CF800287FF4E0A9FEF7F7
:1046E0000FBF24A89DED1E0B02F07AFF00224FF0B1
:1046F0007F5351EC100B03F0CBFC00220023CDE9DB
:104700000C0103F02DFF08B101232493024B099300
:10471000ACE500BF949A0000509A00005D4210334F
:10472000B94B80F29780194610262346DDF80C908D
:104730000C4605E00BF1080B103D102D40F387806F
:1047400001321033072ACDE92B23CBE90046F1DDF6
:104750002AAA0799484603F03BF800287FF498A955
:10476000DDE92B230DF1B40BE6E709F10101039814
:1047700001F014FF0746002800F03B8148F48173E4
:104780000E9326F020030493A046139B0A9047E55E
:1047900067261A9800220F9214920378119AFF2B21
:1047A0000CD093420ADA4178D21AA9B1149B013392
:1047B00014930B46FF2B00F10100F2D11192149BD0
:1047C0000F9A09991A9013441B9A02FB0313099339
:1047D00023EAE373049385E40F9901310F91DEE737
:1047E00028AA25ABCDE90032032124AB4A469DED32
:1047F0001E0B039800F0E0FA4D46074600EB090453
:104800003B78302B00F0BE80249D2C4400220023F6
:10481000DDE91E0103F0A4FE08B1234613E4289B42
:10482000A342BFF410AC30215A1C28921970289B67
:104830009C42F9D807E47C19E8E7B9F1000F00F0D1
:1048400092800A90ECE40A904FF00609E8E42146D1
:104850001C460B4601322C44072ACDE92B24CBE918
:10486000003500F3A9800BF1080B70E49A46FFF7BE
:1048700037BB01232493654B0993F7E4159A13443E
:104880004B4409936626FBE6119B099394E60DF1D0
:10489000A70C64465E4D00E01446A5FB0312D20847
:1048A00002EB8201A3EB410303F130011346092B14
:1048B00004F8011C04F1FF32EEDC3033023CDBB2C1
:1048C000A44502F8013C40F290800DF19A04114693
:1048D00001E011F8013B04F8013B8C45F9D12AAB0A
:1048E0009B1A0DF19A021344FFF7E3BB139B494F48
:1048F000002BB6BF2D229DF88B208DF88B20464BC8
:10490000FEF702BFDDF81C90FFF7C9B828AA25AB57
:10491000CDE90032032124AB4A469DED1E0B0398DE
:1049200000F04AFA4D460746462E07EB05043FF4D1
:1049300067AF6BE7B9F1000F31D1C5072FD4012361
:1049400004930993662642E6C3077FF5BFABFFF7E2
:10495000B9BB099AC3F101031A4422EAE27309922E
:104960000493672633E6CDF828904FF0010957E409
:104970005A4611E5472E7FF45EAF18F0010F3FF461
:1049800061ABD1E700220023DDE91E0103F0E8FD61
:1049900000287FF439AFC5F10105249535E7159B53
:1049A00001334B44099323EAE373049366260EE62E
:1049B0000DF19A02FFF77ABB2AAA0799039802F031
:1049C00007FF00287FF464A8DDE92B240DF1B40B68
:1049D000FFF7BDBB08999AF801600B6843EAE379D9
:1049E0000B1D92460893FEF759BB0DF19A03FFF792
:1049F00060BBDDF81C90B9F80C3043F04003A9F817
:104A00000C30FFF74CB800BF949A0000649A000085
:104A1000CDCCCCCC4C9A0000489A00002DE9F04156
:104A20000C46ADF58D6D8989666EE589199621F084
:104A300002010646E069ADF80C1017464FF480619C
:104A4000626AADF80E5098461AAD0023079016A87A
:104A500009920693009504950291059101F00EFDCF
:104A600043463A4669463046FEF79AFA051E07DB8A
:104A70003046694601F05AF9002818BF4FF0FF355B
:104A8000BDF80C305B0603D5A38943F04003A38136
:104A9000169801F0F5FC28460DF58D6DBDE8F08106
:104AA00021B1FF2A04D80A700120704708467047D8
:104AB0008A2303604FF0FF30704700BF38B5314B99
:104AC0001B6805460C4613B19A6B002A3AD0B4F91C
:104AD0000C2093B218070CD52069A8B113F001027D
:104AE00020D0636900225B42A361A26000B3002072
:104AF00038BDD9063ED5580728D4206942F00803AE
:104B0000A3819BB20028E9D103F42072B2F5007FA3
:104B1000E4D02846214601F0E7FCA389206913F080
:104B20000102DED1990758BF6269A2600028DED178
:104B3000B4F90C301A06DBD543F04003A3814FF0E3
:104B4000FF3038BD184601F04DF9C0E7216B51B177
:104B500004F14003994204D0284601F0E5F9B4F984
:104B60000C200023236300232069636022F02402C9
:104B70002060C3E742F0400209232B604FF0FF3072
:104B8000A28138BD14000020024B13B1024800F08E
:104B900079B8704700000000555E00002DE9F04F25
:104BA000354B85B00F460390186801F06BFC334B12
:104BB0001B68019303F5A4730293B946019BD3F8D4
:104BC00048613EB3DDF808A04FF001087468651E27
:104BD0000FD4013406EB84040027B9F1000F20D074
:104BE000D4F800314B451CD0013D6B1CA4F10404EA
:104BF000F3D1234B73B1D6E90032002A34D1002B14
:104C000032D03046CAF8003001F0C0FCDAF800605B
:104C1000002EDBD1184B186805B0BDE8F04F01F04D
:104C200033BC73682268013BAB420CBF75602760E0
:104C3000002AD9D0D6F88811D6F804B008FA05F3BE
:104C40000B4208D1904773685B45B7D1DAF8003062
:104C5000B342C9D0B2E7D6F88C01D4F88010034231
:104C600007D103989047EEE7B2461E46002EADD11D
:104C7000D0E708469047E6E7AC050020289A0000F8
:104C80008D650000002301461A46184602F0AABDB1
:104C90002DE9F04F03690F69BB4283B0C0F28680F3
:104CA000013F01F1140900F1140A59F827205AF8BC
:104CB0002730BC000132B3FBF2F80AEB0403009486
:104CC00009EB040B0193B8F1000F38D000252E46F4
:104CD000CE46D4465EF8044BDCF80030A2B208FBA6
:104CE0000255220C2C0C08FB0242ADB2751B96B289
:104CF000C6EB134615FA83F306EB23469BB243EA51
:104D00000643F3454FEA12454CF8043B4FEA26466A
:104D1000E0D2009B5AF803308BB9019A131F9A45D1
:104D20000CD252F8043C4BB9A2F1080302E01A6815
:104D3000043B1AB99A4507F1FF37F8D307610446D7
:104D400002F0ACF900282DDB08F1010855460023DC
:104D500059F8041B28688AB29A1A0B0C12FA80F2CE
:104D6000C3EB104303EB224392B242EA0342CB452A
:104D700045F8042B4FEA2343EAD25AF827200AEBDE
:104D800087037AB91A1F92450BD253F8042C42B903
:104D9000083B02E01A68043B1AB99A4507F1FF374D
:104DA000F8D32761404603B0BDE8F08F002003B080
:104DB000BDE8F08F000000002DE9F04F55EC104BDE
:104DC0009BB0066C0291814607920593CDE90045A0
:104DD00056B1426C726001239340B360314601F0DA
:104DE0006DFF0023C9F84030B5F10008249AB4BF24
:104DF000012300231360764BBCBF28F00048CDF898
:104E0000048033EA080300F0A680DDE90067002291
:104E100000233046394603F0A3FB054678B1059AD6
:104E200001231360259B002B00F0C080694B259A5D
:104E300003F1FF3B136058461BB0BDE8F08F18AA82
:104E400019A947EC106B484602F0BAF95FEA18540A
:104E5000824640F0A080DDE918542C4404F232432D
:104E6000202B40F32C84C3F1400308FA03F8009B85
:104E700004F2124023FA00F048EA000003F08EF832
:104E800001230646013CA1F1F8770F9330463946DD
:104E90000022514B02F044FF47A3D3E9002303F063
:104EA000F7F847A3D3E9002302F03CFF064620466B
:104EB0000F4603F083F844A3D3E9002303F0E8F896
:104EC00002460B463046394602F02CFF06460F4696
:104ED00003F08EFB0022069000233046394603F093
:104EE00049FB002840F07382069E162E00F25D8278
:104EF0003A4B03EBC603D3E90001DDE9002303F0DD
:104F000057FB002800F0D783731E069300230D93F0
:104F10002C1BB4F1010800F1548200230893069B76
:104F2000002BC0F2458298440C9300230B93029B04
:104F3000092B5BD8052B40F3C083043B029300256B
:104F4000029B023B032B00F29884DFE813F0DF039F
:104F5000BF03E803F504059A42F20F731360009B48
:104F600083B9C8F313036BB9259BDFF874B0002B2A
:104F70003FF461AF0BF10803259A584613601BB04C
:104F8000BDE8F08F259BDFF85CB0002B3FF453AFFA
:104F90000BF10303F0E7C7F3130343F07F570F95BB
:104FA000A4F2FF3447F44017189D6FE7DFF838B0DC
:104FB00058461BB0BDE8F08F61436F63A787D23FAF
:104FC000B3C8608B288AC63FFB799F501344D33FF8
:104FD0000000F07F819A00000000F83FE09B000095
:104FE000A89B0000B49B0000809A00004FF0FF34A3
:104FF0000125CDE909450023029307930021C9F853
:1050000044100E94484601F033FE0E2C8346C9F836
:10501000400000F2FB80002D00F0F8809DED007B49
:10502000069900298DED107B40F3E5839D4B01F03F
:105030000F0203EBC20393ED007B0C11E2068DED32
:10504000007B40F19E84984BDDE91001D3E90823F1
:1050500003F048F9CDE9120104F00F0403267CB1F6
:10506000DDE90001904DE30704D5D5E9002303F005
:105070000FF80136641005F10805F4D1CDE90001FF
:10508000DDE90023DDE9120103F02CF9CDE900018F
:105090000D9B43B10022854BDDE9000103F06AFA64
:1050A000002840F0FF84304602F088FFDDE900234D
:1050B00002F0EEFF7E4B002202F034FE099B064612
:1050C000A1F15077002B00F01C84069B1693099BDE
:1050D0001293DDE9000103F08BFA129A714B03EB96
:1050E000C20313ED027B00F130058DED147B02F05D
:1050F00065FF0B460246DDE90001CDE9006702F0DD
:105100000FFE0A9BEDB206460F460BF10104002B81
:1051100000F05884DDE914230020664903F0E2F82A
:10512000DDE9002302F0FCFD8BF8005032463B46DF
:10513000CDE9000103F03CFA002840F00285324638
:105140003B460020594902F0EBFD02460B46DDE9E3
:10515000000103F02DFA002840F0FB84129A012A86
:1051600050D05A44CDF85C80CDF848A0CDF850B06E
:105170009246CB46DDE900890CE000204B4902F065
:10518000CFFD42464B4603F0F5F9002840F0DC84A1
:10519000544530D0404649460022474B02F078FF44
:1051A0000022454B804689463046394602F070FF62
:1051B0000F46064603F01CFA054602F0FFFE0246C3
:1051C0000B463046394602F0ABFD3035EDB2424673
:1051D0004B4604F8015B06460F4603F0CBF9324616
:1051E0003B460028C9D0169BDDF848A00693D94657
:1051F000DDF850B036E2D946DDF85C80DDF848A035
:10520000DDF850B0DDE91034CDE90034199B002BF6
:10521000C0F2AE80069A0E2A00F3AA80214B03EB5F
:10522000C20393ED007B079B002B8DED027BC0F248
:10523000BE82DDE90067DDE902233046394603F02E
:1052400051F803F0D5F9054602F0B8FEDDE9022376
:1052500002F01EFF0B4602463946304602F060FD62
:1052600005F130038BF80030099B012B06460F46F1
:105270000BF1010453D000220F4B02F009FF002272
:10528000002306460F4603F06BF9002840F0EA8140
:10529000CDF800A0CDF81C90DDF82480DDE9029A5D
:1052A00017E000BFE09B0000B89B00000000F03F4B
:1052B00000001C400000E03F0000244002F0E8FE37
:1052C0000022002306460F4603F04AF9002840F06A
:1052D0003D834A4653463046394603F003F803F00F
:1052E00087F9054602F06AFE4A46534602F0D0FEB0
:1052F00002460B463046394602F012FD05F1300CED
:1053000004F801CBA4EB0B0CE04506460F464FF02A
:105310000002C14BD2D1DDF800A0DDF81C9032466E
:105320003B463046394602F0FDFCDDE902230646E5
:105330000F4603F03DF958B9DDE9022330463946FE
:1053400003F00EF9002800F08D81E90740F18A8111
:1053500014F8015C05E09B4500F0738313F8015CD1
:105360001C46392D04F1FF33F5D001351D7079E16C
:105370000A9A002A3BD0029A012A40F30B82099B29
:105380005F1E0B9BBB42C0F2E682DF1B099B002B1A
:10539000C0F20B83089A14461A44984408920121DB
:1053A000484601F025FD054624E001230D93AFE5B5
:1053B000089A069BD21A5B420B93002308920C9327
:1053C000B5E5C4F1010308934FF00008A7E5DDF847
:1053D0001880404602F0F2FD32463B4603F0C0F82A
:1053E00000287FF481AD08F1FF3306937CE50B9F25
:1053F000089C0A9D002C0CDDB8F1000F09DD444526
:10540000089A2346A8BF4346D21A0892E41AA8EB8A
:1054100003080B9B6BB10A9A002A00F09082DE1BF6
:10542000002F40F09B8151463246484601F090FDE6
:1054300082460121484601F0DBFC0C9A0646002A10
:1054400040F02581029B012B40F36C8101204044F8
:1054500010F01F0000F01981C0F12003042B40F36D
:10546000AC83C0F11C00089B0344089304448044AF
:10547000089B002B05DD51461A46484601F0B8FD51
:105480008246B8F1000F05DD31464246484601F03C
:10549000AFFD06460D9B002B77D1099B002B40F3F7
:1054A00009820A9B002B00F08980002C00F36B819D
:1054B0000C9B002B40F0CD81A846009ACDF82CB073
:1054C00002F001020A92099A0BF1FF331A445F4677
:1054D0000992B34659465046FFF7DAFB294604467F
:1054E000504601F0DBFD594606464246484601F06B
:1054F000F1FD04F130030093C3680146002B40F036
:10550000D4810890504601F0C9FD089A07901146D1
:10551000484601F0D3FB079B33B9029A22B90A9B94
:10552000002B00F01983029B002EC0F21C8205D1D3
:10553000029A1AB90A9A002A00F01582002B07F184
:10554000010400F32582009B3B70099BBB4200F0E5
:105550003082514600230A22484601F0B9FB4545F6
:10556000824629464FF000034FF00A02484600F0F9
:10557000968101F0ADFB4146054600230A224846CC
:1055800001F0A6FB27468046A4E73146504601F0CD
:1055900085FD002881DA069F514600230A224846ED
:1055A000013F069701F094FB0A9B8246002B40F0D6
:1055B000EB820E9B002B40F3F38209935C46DDF8EF
:1055C000248002E001F084FB824631465046FFF71A
:1055D0005FFB00F1300704F8017BA4EB0B03984557
:1055E0004FF00A024FF0000351464846EADC002320
:1055F0000097029351460122484601F0F9FC3146DA
:10560000824601F04BFD002814F8012C14DC08D16F
:10561000009BDB0710D404E00000244014F8022CA7
:105620001C46302A04F1FF33F8D00BE09B4500F014
:105630004E8113F8012C1C46392A04F1FF33F5D0B2
:1056400001321A703146484601F038FB55B10299D3
:1056500021B1A94202D0484601F030FB2946484614
:1056600001F02CFB5146484601F028FB0022069B26
:105670002270059A01331360259B002B3FF4DBABAE
:1056800058461C601BB0BDE8F08F1C20EBE60146BD
:10569000484601F05DFC029B012B064640F3D48096
:1056A00000230C93336906EB8303186901F050FB68
:1056B000C0F12000CBE60D902AE4012540E4C3F1BF
:1056C0002008009B03FA08F0FFF7D8BB00230A93D9
:1056D000DDE9063213440E930133012B1E46099374
:1056E000B8BF01260021172EC9F84410099C7FF786
:1056F00089AC012204235B0003F11400B04211467F
:1057000002F10102F7D9C9F844107BE400230A939F
:10571000079E002E40F3E2800E960996E2E70123F1
:105720000A93F5E7009B002B7FF490AEDDE90012B1
:10573000C2F31303002B40F0928122F000431B0DB3
:105740001B052BB1089B0133089308F101080123C5
:105750000C9A0C93002A3FF479AEA3E73A46294607
:10576000484601F0F5FB524601460546484601F021
:1057700049FB51460746484601F0A0FABA46002EBA
:105780003FF457AE4FE629462246484601F030FC2A
:1057900005468DE60F9A002A00F05D8103F233433F
:1057A000089A0B9F14461A4498440892F7E5099BFF
:1057B000002B3FF73EAD40F0BC8051EC170B0022B0
:1057C000B24B02F065FCDDE9002302F0E7FE099E22
:1057D0003546002876D1069A3123013206928BF89D
:1057E00000300BF101043146484601F067FA002D04
:1057F0007FF434AF36E700F04281069B5C42A44B55
:1058000004F00F0203EBC203D3E90023DDE910012A
:1058100002F03EFC2411CDE9000100F0C6819D4D4F
:1058200000230226E70705D5D5E9002302F030FC66
:1058300001360123641005F10805F3D1002B3FF474
:1058400027ACCDE9000123E4009B002B3FF46EAFB1
:1058500026E76968484601F00BFA2B6902339A0083
:10586000044605F10C010C30FDF7A4F82146012295
:10587000484601F0BDFB80461FE60024C9F84440BD
:105880002146484601F0F4F94FF0FF330E93099397
:10589000012383460794C9F840000A93B6E401F057
:1058A00017FA27460546804614E6484601F006FAF0
:1058B000012339E6029B022B7FF7F3AD099B002BF6
:1058C00000F0CF80079BDB4306935C468BE7069A8C
:1058D0003123013206928BF80030B3E6012409949B
:1058E0000794FFF78BBB304602F068FBDDE900232D
:1058F00002F0CEFB0022684B02F014FA0646A1F13A
:1059000050770022614BDDE9000102F009FA3246CE
:105910003B4604460D4602F04BFE00284FD132466E
:1059200007F100432046294602F024FE00283FF4F8
:1059300069AC00263546C5E701230A93C8E65146FF
:105940000B9A484601F004FB824672E5DDF800A0A0
:10595000DDF81C9086E60B9B0C9AFB1A1A44CDE9E5
:105960000B72002712E5002B02945E4607F101043A
:10597000DDF82CB000F3BA80009B02953B704546E1
:1059800060E69DED107B02268DED127BFFF767BB75
:10599000009B392B5E46DDF82CB000F0B980009BEF
:1059A000029501333B7045464CE6DDE908329C1A0E
:1059B000F5E45E460295DDF82CB045461AE6002671
:1059C000354608E7DDE91423DDE9000102F060FB5C
:1059D000129B8BF80050012BCDE9000120D0129BC7
:1059E000CDF848805B44984600222C4B304639461F
:1059F00002F04EFB0F46064602F0FAFD054602F0A5
:105A0000DDFA303502460B463046394602F088F959
:105A100004F8015B444506460F46E5D1DDF84880B1
:105A20001F4B0022DDE9000102F07CF932463B46C3
:105A300002F0A0FD002870D0169B069314F8015CBC
:105A40008FE430238BF80030069B14F8015C01339F
:105A500006935B4689E4189BC3F13603A0E6002356
:105A600076E631460522484601F032F901460646FF
:105A7000504601F013FB00283FF7ADAE22E79DED45
:105A8000107B02268DED007BFFF702BB0000144067
:105A9000E09B0000B89B000000001C400000244078
:105AA0000000E03F099B002B3FF41DAF0E9C002C33
:105AB0007FF7A8AB0022454BDDE9000102F0E8FAD0
:105AC000CDE90001701C02F079FADDE9002302F053
:105AD000DFFA3F4B002202F025F9069B1294013BAE
